{
	"data": {
		"bytecode": {
			"linkReferences": {},
			"object": "61016060405234801562000011575f80fd5b506040518060400160405280601381526020017f417574686f72697a6174696f6e20746f6b656e000000000000000000000000008152506040518060400160405280600181526020017f31000000000000000000000000000000000000000000000000000000000000008152508181620000955f836200013760201b90919060201c565b6101208181525050620000b36001826200013760201b90919060201c565b6101408181525050818051906020012060e08181525050808051906020012061010081815250504660a08181525050620000f26200018c60201b60201c565b608081815250503073ffffffffffffffffffffffffffffffffffffffff1660c08173ffffffffffffffffffffffffffffffffffffffff168152505050505050620007b6565b5f6020835110156200015c576200015483620001e860201b60201c565b905062000186565b826200016e836200025260201b60201c565b5f0190816200017e9190620004bf565b5060ff5f1b90505b92915050565b5f7f8b73c3c69bb8fe3d512ecc4cf759cc79239f7b179b0ffacaa9a75d522b39400f60e051610100514630604051602001620001cd95949392919062000611565b60405160208183030381529060405280519060200120905090565b5f80829050601f815111156200023757826040517f305a27a90000000000000000000000000000000000000000000000000000000081526004016200022e9190620006f6565b60405180910390fd5b805181620002459062000747565b5f1c175f1b915050919050565b5f819050919050565b5f81519050919050565b7f4e487b71000000000000000000000000000000000000000000000000000000005f52604160045260245ffd5b7f4e487b71000000000000000000000000000000000000000000000000000000005f52602260045260245ffd5b5f6002820490506001821680620002d757607f821691505b602082108103620002ed57620002ec62000292565b5b50919050565b5f819050815f5260205f209050919050565b5f6020601f8301049050919050565b5f82821b905092915050565b5f60088302620003517fffffffffffffffffffffffffffffffffffffffffffffffffffffffffffffffff8262000314565b6200035d868362000314565b95508019841693508086168417925050509392505050565b5f819050919050565b5f819050919050565b5f620003a7620003a16200039b8462000375565b6200037e565b62000375565b9050919050565b5f819050919050565b620003c28362000387565b620003da620003d182620003ae565b84845462000320565b825550505050565b5f90565b620003f0620003e2565b620003fd818484620003b7565b505050565b5b818110156200042457620004185f82620003e6565b60018101905062000403565b5050565b601f82111562000473576200043d81620002f3565b620004488462000305565b8101602085101562000458578190505b62000470620004678562000305565b83018262000402565b50505b505050565b5f82821c905092915050565b5f620004955f198460080262000478565b1980831691505092915050565b5f620004af838362000484565b9150826002028217905092915050565b620004ca826200025b565b67ffffffffffffffff811115620004e657620004e562000265565b5b620004f28254620002bf565b620004ff82828562000428565b5f60209050601f83116001811462000535575f841562000520578287015190505b6200052c8582620004a2565b8655506200059b565b601f1984166200054586620002f3565b5f5b828110156200056e5784890151825560018201915060208501945060208101905062000547565b868310156200058e57848901516200058a601f89168262000484565b8355505b6001600288020188555050505b505050505050565b5f819050919050565b620005b781620005a3565b82525050565b620005c88162000375565b82525050565b5f73ffffffffffffffffffffffffffffffffffffffff82169050919050565b5f620005f982620005ce565b9050919050565b6200060b81620005ed565b82525050565b5f60a082019050620006265f830188620005ac565b620006356020830187620005ac565b620006446040830186620005ac565b620006536060830185620005bd565b62000662608083018462000600565b9695505050505050565b5f82825260208201905092915050565b5f5b838110156200069b5780820151818401526020810190506200067e565b5f8484015250505050565b5f601f19601f8301169050919050565b5f620006c2826200025b565b620006ce81856200066c565b9350620006e08185602086016200067c565b620006eb81620006a6565b840191505092915050565b5f6020820190508181035f830152620007108184620006b6565b905092915050565b5f81519050919050565b5f819050602082019050919050565b5f6200073e8251620005a3565b80915050919050565b5f620007538262000718565b826200075f8462000722565b90506200076c8162000731565b92506020821015620007af57620007aa7fffffffffffffffffffffffffffffffffffffffffffffffffffffffffffffffff8360200360080262000314565b831692505b5050919050565b60805160a05160c05160e051610100516101205161014051611207620008085f395f6102a801525f61026d01525f61085f01525f61083e01525f6103f001525f61044601525f61046f01526112075ff3fe608060405234801561000f575f80fd5b5060043610610034575f3560e01c806384b0196e1461003857806392805a4a1461005c575b5f80fd5b61004061008c565b6040516100539796959493929190610bce565b60405180910390f35b61007660048036038101906100719190610cec565b610131565b6040516100839190610d9b565b60405180910390f35b5f6060805f805f606061009d610265565b6100a561029f565b46305f801b5f67ffffffffffffffff8111156100c4576100c3610dbb565b5b6040519080825280602002602001820160405280156100f25781602001602082028036833780820191505090505b507f0f00000000000000000000000000000000000000000000000000000000000000959493929190965096509650965096509650965090919293949596565b60608383838080601f0160208091040260200160405190810160405280939291908181526020018383808284375f81840152601f19601f820116905080830192505050505050505f6101ca7f051d137ae0e1fae6e3b6559fed4442b35a85a9a39789838ad5c9ea05e7da2dce846040516020016101af929190610de8565b604051602081830303815290604052805190602001206102da565b90505f6101d782846102f3565b90503373ffffffffffffffffffffffffffffffffffffffff168173ffffffffffffffffffffffffffffffffffffffff1614610247576040517f08c379a000000000000000000000000000000000000000000000000000000000815260040161023e90610e7f565b60405180910390fd5b61025861025261031d565b8961032c565b9450505050509392505050565b606061029a5f7f000000000000000000000000000000000000000000000000000000000000000061034090919063ffffffff16565b905090565b60606102d560017f000000000000000000000000000000000000000000000000000000000000000061034090919063ffffffff16565b905090565b5f6102ec6102e66103ed565b836104a3565b9050919050565b5f805f8061030186866104e3565b9250925092506103118282610538565b82935050505092915050565b5f6103275f61069a565b905090565b6060610338838361071e565b905092915050565b606060ff5f1b831461035c57610355836107a8565b90506103e7565b81805461036890610eca565b80601f016020809104026020016040519081016040528092919081815260200182805461039490610eca565b80156103df5780601f106103b6576101008083540402835291602001916103df565b820191905f5260205f20905b8154815290600101906020018083116103c257829003601f168201915b505050505090505b92915050565b5f7f000000000000000000000000000000000000000000000000000000000000000073ffffffffffffffffffffffffffffffffffffffff163073ffffffffffffffffffffffffffffffffffffffff1614801561046857507f000000000000000000000000000000000000000000000000000000000000000046145b15610495577f000000000000000000000000000000000000000000000000000000000000000090506104a0565b61049d61081a565b90505b90565b5f6040517f190100000000000000000000000000000000000000000000000000000000000081528360028201528260228201526042812091505092915050565b5f805f6041845103610523575f805f602087015192506040870151915060608701515f1a9050610515888285856108af565b955095509550505050610531565b5f600285515f1b9250925092505b9250925092565b5f600381111561054b5761054a610efa565b5b82600381111561055e5761055d610efa565b5b0315610696576001600381111561057857610577610efa565b5b82600381111561058b5761058a610efa565b5b036105c2576040517ff645eedf00000000000000000000000000000000000000000000000000000000815260040160405180910390fd5b600260038111156105d6576105d5610efa565b5b8260038111156105e9576105e8610efa565b5b0361062d57805f1c6040517ffce698f70000000000000000000000000000000000000000000000000000000081526004016106249190610f27565b60405180910390fd5b6003808111156106405761063f610efa565b5b82600381111561065357610652610efa565b5b0361069557806040517fd78bce0c00000000000000000000000000000000000000000000000000000000815260040161068c9190610f40565b60405180910390fd5b5b5050565b5f605d73ffffffffffffffffffffffffffffffffffffffff1663900d294e8360f81b6040518263ffffffff1660e01b81526004016106d89190610f59565b602060405180830381865afa1580156106f3573d5f803e3d5ffd5b505050506040513d601f19601f820116820180604052508101906107179190610f9c565b9050919050565b6060605d73ffffffffffffffffffffffffffffffffffffffff1663d6ad57cd84845f1c6040518363ffffffff1660e01b815260040161075e929190610fc7565b5f60405180830381865afa158015610778573d5f803e3d5ffd5b505050506040513d5f823e3d601f19601f820116820180604052508101906107a091906110db565b905092915050565b60605f6107b483610996565b90505f602067ffffffffffffffff8111156107d2576107d1610dbb565b5b6040519080825280601f01601f1916602001820160405280156108045781602001600182028036833780820191505090505b5090508181528360208201528092505050919050565b5f7f8b73c3c69bb8fe3d512ecc4cf759cc79239f7b179b0ffacaa9a75d522b39400f7f00000000000000000000000000000000000000000000000000000000000000007f00000000000000000000000000000000000000000000000000000000000000004630604051602001610894959493929190611122565b60405160208183030381529060405280519060200120905090565b5f805f7f7fffffffffffffffffffffffffffffff5d576e7357a4501ddfe92f46681b20a0845f1c11156108eb575f60038592509250925061098c565b5f6001888888886040515f815260200160405260405161090e949392919061118e565b6020604051602081039080840390855afa15801561092e573d5f803e3d5ffd5b5050506020604051035190505f73ffffffffffffffffffffffffffffffffffffffff168173ffffffffffffffffffffffffffffffffffffffff160361097f575f60015f801b9350935093505061098c565b805f805f1b935093509350505b9450945094915050565b5f8060ff835f1c169050601f8111156109db576040517fb3512b0c00000000000000000000000000000000000000000000000000000000815260040160405180910390fd5b80915050919050565b5f7fff0000000000000000000000000000000000000000000000000000000000000082169050919050565b610a18816109e4565b82525050565b5f81519050919050565b5f82825260208201905092915050565b5f5b83811015610a55578082015181840152602081019050610a3a565b5f8484015250505050565b5f601f19601f8301169050919050565b5f610a7a82610a1e565b610a848185610a28565b9350610a94818560208601610a38565b610a9d81610a60565b840191505092915050565b5f819050919050565b610aba81610aa8565b82525050565b5f73ffffffffffffffffffffffffffffffffffffffff82169050919050565b5f610ae982610ac0565b9050919050565b610af981610adf565b82525050565b5f819050919050565b610b1181610aff565b82525050565b5f81519050919050565b5f82825260208201905092915050565b5f819050602082019050919050565b610b4981610aa8565b82525050565b5f610b5a8383610b40565b60208301905092915050565b5f602082019050919050565b5f610b7c82610b17565b610b868185610b21565b9350610b9183610b31565b805f5b83811015610bc1578151610ba88882610b4f565b9750610bb383610b66565b925050600181019050610b94565b5085935050505092915050565b5f60e082019050610be15f83018a610a0f565b8181036020830152610bf38189610a70565b90508181036040830152610c078188610a70565b9050610c166060830187610ab1565b610c236080830186610af0565b610c3060a0830185610b08565b81810360c0830152610c428184610b72565b905098975050505050505050565b5f604051905090565b5f80fd5b5f80fd5b610c6a81610aff565b8114610c74575f80fd5b50565b5f81359050610c8581610c61565b92915050565b5f80fd5b5f80fd5b5f80fd5b5f8083601f840112610cac57610cab610c8b565b5b8235905067ffffffffffffffff811115610cc957610cc8610c8f565b5b602083019150836001820283011115610ce557610ce4610c93565b5b9250929050565b5f805f60408486031215610d0357610d02610c59565b5b5f610d1086828701610c77565b935050602084013567ffffffffffffffff811115610d3157610d30610c5d565b5b610d3d86828701610c97565b92509250509250925092565b5f81519050919050565b5f82825260208201905092915050565b5f610d6d82610d49565b610d778185610d53565b9350610d87818560208601610a38565b610d9081610a60565b840191505092915050565b5f6020820190508181035f830152610db38184610d63565b905092915050565b7f4e487b71000000000000000000000000000000000000000000000000000000005f52604160045260245ffd5b5f604082019050610dfb5f830185610b08565b610e086020830184610b08565b9392505050565b7f454950373132207369676e657220616e64207472616e73616374696f6e2073695f8201527f676e657220646f206e6f74206d61746368000000000000000000000000000000602082015250565b5f610e69603183610a28565b9150610e7482610e0f565b604082019050919050565b5f6020820190508181035f830152610e9681610e5d565b9050919050565b7f4e487b71000000000000000000000000000000000000000000000000000000005f52602260045260245ffd5b5f6002820490506001821680610ee157607f821691505b602082108103610ef457610ef3610e9d565b5b50919050565b7f4e487b71000000000000000000000000000000000000000000000000000000005f52602160045260245ffd5b5f602082019050610f3a5f830184610ab1565b92915050565b5f602082019050610f535f830184610b08565b92915050565b5f602082019050610f6c5f830184610a0f565b92915050565b610f7b81610aa8565b8114610f85575f80fd5b50565b5f81519050610f9681610f72565b92915050565b5f60208284031215610fb157610fb0610c59565b5b5f610fbe84828501610f88565b91505092915050565b5f604082019050610fda5f830185610ab1565b610fe76020830184610ab1565b9392505050565b5f80fd5b610ffb82610a60565b810181811067ffffffffffffffff8211171561101a57611019610dbb565b5b80604052505050565b5f61102c610c50565b90506110388282610ff2565b919050565b5f67ffffffffffffffff82111561105757611056610dbb565b5b61106082610a60565b9050602081019050919050565b5f61107f61107a8461103d565b611023565b90508281526020810184848401111561109b5761109a610fee565b5b6110a6848285610a38565b509392505050565b5f82601f8301126110c2576110c1610c8b565b5b81516110d284826020860161106d565b91505092915050565b5f602082840312156110f0576110ef610c59565b5b5f82015167ffffffffffffffff81111561110d5761110c610c5d565b5b611119848285016110ae565b91505092915050565b5f60a0820190506111355f830188610b08565b6111426020830187610b08565b61114f6040830186610b08565b61115c6060830185610ab1565b6111696080830184610af0565b9695505050505050565b5f60ff82169050919050565b61118881611173565b82525050565b5f6080820190506111a15f830187610b08565b6111ae602083018661117f565b6111bb6040830185610b08565b6111c86060830184610b08565b9594505050505056fea2646970667358221220b0f9535091f4c6f6fe5d7a82125d52673fb1e38e3820fc605d4d2fc20277968364736f6c63430008180033",
			"opcodes": "PUSH2 0x160 PUSH1 0x40 MSTORE CALLVALUE DUP1 ISZERO PUSH3 0x11 JUMPI PUSH0 DUP1 REVERT JUMPDEST POP PUSH1 0x40 MLOAD DUP1 PUSH1 0x40 ADD PUSH1 0x40 MSTORE DUP1 PUSH1 0x13 DUP2 MSTORE PUSH1 0x20 ADD PUSH32 0x417574686F72697A6174696F6E20746F6B656E00000000000000000000000000 DUP2 MSTORE POP PUSH1 0x40 MLOAD DUP1 PUSH1 0x40 ADD PUSH1 0x40 MSTORE DUP1 PUSH1 0x1 DUP2 MSTORE PUSH1 0x20 ADD PUSH32 0x3100000000000000000000000000000000000000000000000000000000000000 DUP2 MSTORE POP DUP2 DUP2 PUSH3 0x95 PUSH0 DUP4 PUSH3 0x137 PUSH1 0x20 SHL SWAP1 SWAP2 SWAP1 PUSH1 0x20 SHR JUMP JUMPDEST PUSH2 0x120 DUP2 DUP2 MSTORE POP POP PUSH3 0xB3 PUSH1 0x1 DUP3 PUSH3 0x137 PUSH1 0x20 SHL SWAP1 SWAP2 SWAP1 PUSH1 0x20 SHR JUMP JUMPDEST PUSH2 0x140 DUP2 DUP2 MSTORE POP POP DUP2 DUP1 MLOAD SWAP1 PUSH1 0x20 ADD KECCAK256 PUSH1 0xE0 DUP2 DUP2 MSTORE POP POP DUP1 DUP1 MLOAD SWAP1 PUSH1 0x20 ADD KECCAK256 PUSH2 0x100 DUP2 DUP2 MSTORE POP POP CHAINID PUSH1 0xA0 DUP2 DUP2 MSTORE POP POP PUSH3 0xF2 PUSH3 0x18C PUSH1 0x20 SHL PUSH1 0x20 SHR JUMP JUMPDEST PUSH1 0x80 DUP2 DUP2 MSTORE POP POP ADDRESS PUSH20 0xFFFFFFFFFFFFFFFFFFFFFFFFFFFFFFFFFFFFFFFF AND PUSH1 0xC0 DUP2 PUSH20 0xFFFFFFFFFFFFFFFFFFFFFFFFFFFFFFFFFFFFFFFF AND DUP2 MSTORE POP POP POP POP POP POP PUSH3 0x7B6 JUMP JUMPDEST PUSH0 PUSH1 0x20 DUP4 MLOAD LT ISZERO PUSH3 0x15C JUMPI PUSH3 0x154 DUP4 PUSH3 0x1E8 PUSH1 0x20 SHL PUSH1 0x20 SHR JUMP JUMPDEST SWAP1 POP PUSH3 0x186 JUMP JUMPDEST DUP3 PUSH3 0x16E DUP4 PUSH3 0x252 PUSH1 0x20 SHL PUSH1 0x20 SHR JUMP JUMPDEST PUSH0 ADD SWAP1 DUP2 PUSH3 0x17E SWAP2 SWAP1 PUSH3 0x4BF JUMP JUMPDEST POP PUSH1 0xFF PUSH0 SHL SWAP1 POP JUMPDEST SWAP3 SWAP2 POP POP JUMP JUMPDEST PUSH0 PUSH32 0x8B73C3C69BB8FE3D512ECC4CF759CC79239F7B179B0FFACAA9A75D522B39400F PUSH1 0xE0 MLOAD PUSH2 0x100 MLOAD CHAINID ADDRESS PUSH1 0x40 MLOAD PUSH1 0x20 ADD PUSH3 0x1CD SWAP6 SWAP5 SWAP4 SWAP3 SWAP2 SWAP1 PUSH3 0x611 JUMP JUMPDEST PUSH1 0x40 MLOAD PUSH1 0x20 DUP2 DUP4 SUB SUB DUP2 MSTORE SWAP1 PUSH1 0x40 MSTORE DUP1 MLOAD SWAP1 PUSH1 0x20 ADD KECCAK256 SWAP1 POP SWAP1 JUMP JUMPDEST PUSH0 DUP1 DUP3 SWAP1 POP PUSH1 0x1F DUP2 MLOAD GT ISZERO PUSH3 0x237 JUMPI DUP3 PUSH1 0x40 MLOAD PUSH32 0x305A27A900000000000000000000000000000000000000000000000000000000 DUP2 MSTORE PUSH1 0x4 ADD PUSH3 0x22E SWAP2 SWAP1 PUSH3 0x6F6 JUMP JUMPDEST PUSH1 0x40 MLOAD DUP1 SWAP2 SUB SWAP1 REVERT JUMPDEST DUP1 MLOAD DUP2 PUSH3 0x245 SWAP1 PUSH3 0x747 JUMP JUMPDEST PUSH0 SHR OR PUSH0 SHL SWAP2 POP POP SWAP2 SWAP1 POP JUMP JUMPDEST PUSH0 DUP2 SWAP1 POP SWAP2 SWAP1 POP JUMP JUMPDEST PUSH0 DUP2 MLOAD SWAP1 POP SWAP2 SWAP1 POP JUMP JUMPDEST PUSH32 0x4E487B7100000000000000000000000000000000000000000000000000000000 PUSH0 MSTORE PUSH1 0x41 PUSH1 0x4 MSTORE PUSH1 0x24 PUSH0 REVERT JUMPDEST PUSH32 0x4E487B7100000000000000000000000000000000000000000000000000000000 PUSH0 MSTORE PUSH1 0x22 PUSH1 0x4 MSTORE PUSH1 0x24 PUSH0 REVERT JUMPDEST PUSH0 PUSH1 0x2 DUP3 DIV SWAP1 POP PUSH1 0x1 DUP3 AND DUP1 PUSH3 0x2D7 JUMPI PUSH1 0x7F DUP3 AND SWAP2 POP JUMPDEST PUSH1 0x20 DUP3 LT DUP2 SUB PUSH3 0x2ED JUMPI PUSH3 0x2EC PUSH3 0x292 JUMP JUMPDEST JUMPDEST POP SWAP2 SWAP1 POP JUMP JUMPDEST PUSH0 DUP2 SWAP1 POP DUP2 PUSH0 MSTORE PUSH1 0x20 PUSH0 KECCAK256 SWAP1 POP SWAP2 SWAP1 POP JUMP JUMPDEST PUSH0 PUSH1 0x20 PUSH1 0x1F DUP4 ADD DIV SWAP1 POP SWAP2 SWAP1 POP JUMP JUMPDEST PUSH0 DUP3 DUP3 SHL SWAP1 POP SWAP3 SWAP2 POP POP JUMP JUMPDEST PUSH0 PUSH1 0x8 DUP4 MUL PUSH3 0x351 PUSH32 0xFFFFFFFFFFFFFFFFFFFFFFFFFFFFFFFFFFFFFFFFFFFFFFFFFFFFFFFFFFFFFFFF DUP3 PUSH3 0x314 JUMP JUMPDEST PUSH3 0x35D DUP7 DUP4 PUSH3 0x314 JUMP JUMPDEST SWAP6 POP DUP1 NOT DUP5 AND SWAP4 POP DUP1 DUP7 AND DUP5 OR SWAP3 POP POP POP SWAP4 SWAP3 POP POP POP JUMP JUMPDEST PUSH0 DUP2 SWAP1 POP SWAP2 SWAP1 POP JUMP JUMPDEST PUSH0 DUP2 SWAP1 POP SWAP2 SWAP1 POP JUMP JUMPDEST PUSH0 PUSH3 0x3A7 PUSH3 0x3A1 PUSH3 0x39B DUP5 PUSH3 0x375 JUMP JUMPDEST PUSH3 0x37E JUMP JUMPDEST PUSH3 0x375 JUMP JUMPDEST SWAP1 POP SWAP2 SWAP1 POP JUMP JUMPDEST PUSH0 DUP2 SWAP1 POP SWAP2 SWAP1 POP JUMP JUMPDEST PUSH3 0x3C2 DUP4 PUSH3 0x387 JUMP JUMPDEST PUSH3 0x3DA PUSH3 0x3D1 DUP3 PUSH3 0x3AE JUMP JUMPDEST DUP5 DUP5 SLOAD PUSH3 0x320 JUMP JUMPDEST DUP3 SSTORE POP POP POP POP JUMP JUMPDEST PUSH0 SWAP1 JUMP JUMPDEST PUSH3 0x3F0 PUSH3 0x3E2 JUMP JUMPDEST PUSH3 0x3FD DUP2 DUP5 DUP5 PUSH3 0x3B7 JUMP JUMPDEST POP POP POP JUMP JUMPDEST JUMPDEST DUP2 DUP2 LT ISZERO PUSH3 0x424 JUMPI PUSH3 0x418 PUSH0 DUP3 PUSH3 0x3E6 JUMP JUMPDEST PUSH1 0x1 DUP2 ADD SWAP1 POP PUSH3 0x403 JUMP JUMPDEST POP POP JUMP JUMPDEST PUSH1 0x1F DUP3 GT ISZERO PUSH3 0x473 JUMPI PUSH3 0x43D DUP2 PUSH3 0x2F3 JUMP JUMPDEST PUSH3 0x448 DUP5 PUSH3 0x305 JUMP JUMPDEST DUP2 ADD PUSH1 0x20 DUP6 LT ISZERO PUSH3 0x458 JUMPI DUP2 SWAP1 POP JUMPDEST PUSH3 0x470 PUSH3 0x467 DUP6 PUSH3 0x305 JUMP JUMPDEST DUP4 ADD DUP3 PUSH3 0x402 JUMP JUMPDEST POP POP JUMPDEST POP POP POP JUMP JUMPDEST PUSH0 DUP3 DUP3 SHR SWAP1 POP SWAP3 SWAP2 POP POP JUMP JUMPDEST PUSH0 PUSH3 0x495 PUSH0 NOT DUP5 PUSH1 0x8 MUL PUSH3 0x478 JUMP JUMPDEST NOT DUP1 DUP4 AND SWAP2 POP POP SWAP3 SWAP2 POP POP JUMP JUMPDEST PUSH0 PUSH3 0x4AF DUP4 DUP4 PUSH3 0x484 JUMP JUMPDEST SWAP2 POP DUP3 PUSH1 0x2 MUL DUP3 OR SWAP1 POP SWAP3 SWAP2 POP POP JUMP JUMPDEST PUSH3 0x4CA DUP3 PUSH3 0x25B JUMP JUMPDEST PUSH8 0xFFFFFFFFFFFFFFFF DUP2 GT ISZERO PUSH3 0x4E6 JUMPI PUSH3 0x4E5 PUSH3 0x265 JUMP JUMPDEST JUMPDEST PUSH3 0x4F2 DUP3 SLOAD PUSH3 0x2BF JUMP JUMPDEST PUSH3 0x4FF DUP3 DUP3 DUP6 PUSH3 0x428 JUMP JUMPDEST PUSH0 PUSH1 0x20 SWAP1 POP PUSH1 0x1F DUP4 GT PUSH1 0x1 DUP2 EQ PUSH3 0x535 JUMPI PUSH0 DUP5 ISZERO PUSH3 0x520 JUMPI DUP3 DUP8 ADD MLOAD SWAP1 POP JUMPDEST PUSH3 0x52C DUP6 DUP3 PUSH3 0x4A2 JUMP JUMPDEST DUP7 SSTORE POP PUSH3 0x59B JUMP JUMPDEST PUSH1 0x1F NOT DUP5 AND PUSH3 0x545 DUP7 PUSH3 0x2F3 JUMP JUMPDEST PUSH0 JUMPDEST DUP3 DUP2 LT ISZERO PUSH3 0x56E JUMPI DUP5 DUP10 ADD MLOAD DUP3 SSTORE PUSH1 0x1 DUP3 ADD SWAP2 POP PUSH1 0x20 DUP6 ADD SWAP5 POP PUSH1 0x20 DUP2 ADD SWAP1 POP PUSH3 0x547 JUMP JUMPDEST DUP7 DUP4 LT ISZERO PUSH3 0x58E JUMPI DUP5 DUP10 ADD MLOAD PUSH3 0x58A PUSH1 0x1F DUP10 AND DUP3 PUSH3 0x484 JUMP JUMPDEST DUP4 SSTORE POP JUMPDEST PUSH1 0x1 PUSH1 0x2 DUP9 MUL ADD DUP9 SSTORE POP POP POP JUMPDEST POP POP POP POP POP POP JUMP JUMPDEST PUSH0 DUP2 SWAP1 POP SWAP2 SWAP1 POP JUMP JUMPDEST PUSH3 0x5B7 DUP2 PUSH3 0x5A3 JUMP JUMPDEST DUP3 MSTORE POP POP JUMP JUMPDEST PUSH3 0x5C8 DUP2 PUSH3 0x375 JUMP JUMPDEST DUP3 MSTORE POP POP JUMP JUMPDEST PUSH0 PUSH20 0xFFFFFFFFFFFFFFFFFFFFFFFFFFFFFFFFFFFFFFFF DUP3 AND SWAP1 POP SWAP2 SWAP1 POP JUMP JUMPDEST PUSH0 PUSH3 0x5F9 DUP3 PUSH3 0x5CE JUMP JUMPDEST SWAP1 POP SWAP2 SWAP1 POP JUMP JUMPDEST PUSH3 0x60B DUP2 PUSH3 0x5ED JUMP JUMPDEST DUP3 MSTORE POP POP JUMP JUMPDEST PUSH0 PUSH1 0xA0 DUP3 ADD SWAP1 POP PUSH3 0x626 PUSH0 DUP4 ADD DUP9 PUSH3 0x5AC JUMP JUMPDEST PUSH3 0x635 PUSH1 0x20 DUP4 ADD DUP8 PUSH3 0x5AC JUMP JUMPDEST PUSH3 0x644 PUSH1 0x40 DUP4 ADD DUP7 PUSH3 0x5AC JUMP JUMPDEST PUSH3 0x653 PUSH1 0x60 DUP4 ADD DUP6 PUSH3 0x5BD JUMP JUMPDEST PUSH3 0x662 PUSH1 0x80 DUP4 ADD DUP5 PUSH3 0x600 JUMP JUMPDEST SWAP7 SWAP6 POP POP POP POP POP POP JUMP JUMPDEST PUSH0 DUP3 DUP3 MSTORE PUSH1 0x20 DUP3 ADD SWAP1 POP SWAP3 SWAP2 POP POP JUMP JUMPDEST PUSH0 JUMPDEST DUP4 DUP2 LT ISZERO PUSH3 0x69B JUMPI DUP1 DUP3 ADD MLOAD DUP2 DUP5 ADD MSTORE PUSH1 0x20 DUP2 ADD SWAP1 POP PUSH3 0x67E JUMP JUMPDEST PUSH0 DUP5 DUP5 ADD MSTORE POP POP POP POP JUMP JUMPDEST PUSH0 PUSH1 0x1F NOT PUSH1 0x1F DUP4 ADD AND SWAP1 POP SWAP2 SWAP1 POP JUMP JUMPDEST PUSH0 PUSH3 0x6C2 DUP3 PUSH3 0x25B JUMP JUMPDEST PUSH3 0x6CE DUP2 DUP6 PUSH3 0x66C JUMP JUMPDEST SWAP4 POP PUSH3 0x6E0 DUP2 DUP6 PUSH1 0x20 DUP7 ADD PUSH3 0x67C JUMP JUMPDEST PUSH3 0x6EB DUP2 PUSH3 0x6A6 JUMP JUMPDEST DUP5 ADD SWAP2 POP POP SWAP3 SWAP2 POP POP JUMP JUMPDEST PUSH0 PUSH1 0x20 DUP3 ADD SWAP1 POP DUP2 DUP2 SUB PUSH0 DUP4 ADD MSTORE PUSH3 0x710 DUP2 DUP5 PUSH3 0x6B6 JUMP JUMPDEST SWAP1 POP SWAP3 SWAP2 POP POP JUMP JUMPDEST PUSH0 DUP2 MLOAD SWAP1 POP SWAP2 SWAP1 POP JUMP JUMPDEST PUSH0 DUP2 SWAP1 POP PUSH1 0x20 DUP3 ADD SWAP1 POP SWAP2 SWAP1 POP JUMP JUMPDEST PUSH0 PUSH3 0x73E DUP3 MLOAD PUSH3 0x5A3 JUMP JUMPDEST DUP1 SWAP2 POP POP SWAP2 SWAP1 POP JUMP JUMPDEST PUSH0 PUSH3 0x753 DUP3 PUSH3 0x718 JUMP JUMPDEST DUP3 PUSH3 0x75F DUP5 PUSH3 0x722 JUMP JUMPDEST SWAP1 POP PUSH3 0x76C DUP2 PUSH3 0x731 JUMP JUMPDEST SWAP3 POP PUSH1 0x20 DUP3 LT ISZERO PUSH3 0x7AF JUMPI PUSH3 0x7AA PUSH32 0xFFFFFFFFFFFFFFFFFFFFFFFFFFFFFFFFFFFFFFFFFFFFFFFFFFFFFFFFFFFFFFFF DUP4 PUSH1 0x20 SUB PUSH1 0x8 MUL PUSH3 0x314 JUMP JUMPDEST DUP4 AND SWAP3 POP JUMPDEST POP POP SWAP2 SWAP1 POP JUMP JUMPDEST PUSH1 0x80 MLOAD PUSH1 0xA0 MLOAD PUSH1 0xC0 MLOAD PUSH1 0xE0 MLOAD PUSH2 0x100 MLOAD PUSH2 0x120 MLOAD PUSH2 0x140 MLOAD PUSH2 0x1207 PUSH3 0x808 PUSH0 CODECOPY PUSH0 PUSH2 0x2A8 ADD MSTORE PUSH0 PUSH2 0x26D ADD MSTORE PUSH0 PUSH2 0x85F ADD MSTORE PUSH0 PUSH2 0x83E ADD MSTORE PUSH0 PUSH2 0x3F0 ADD MSTORE PUSH0 PUSH2 0x446 ADD MSTORE PUSH0 PUSH2 0x46F ADD MSTORE PUSH2 0x1207 PUSH0 RETURN INVALID PUSH1 0x80 PUSH1 0x40 MSTORE CALLVALUE DUP1 ISZERO PUSH2 0xF JUMPI PUSH0 DUP1 REVERT JUMPDEST POP PUSH1 0x4 CALLDATASIZE LT PUSH2 0x34 JUMPI PUSH0 CALLDATALOAD PUSH1 0xE0 SHR DUP1 PUSH4 0x84B0196E EQ PUSH2 0x38 JUMPI DUP1 PUSH4 0x92805A4A EQ PUSH2 0x5C JUMPI JUMPDEST PUSH0 DUP1 REVERT JUMPDEST PUSH2 0x40 PUSH2 0x8C JUMP JUMPDEST PUSH1 0x40 MLOAD PUSH2 0x53 SWAP8 SWAP7 SWAP6 SWAP5 SWAP4 SWAP3 SWAP2 SWAP1 PUSH2 0xBCE JUMP JUMPDEST PUSH1 0x40 MLOAD DUP1 SWAP2 SUB SWAP1 RETURN JUMPDEST PUSH2 0x76 PUSH1 0x4 DUP1 CALLDATASIZE SUB DUP2 ADD SWAP1 PUSH2 0x71 SWAP2 SWAP1 PUSH2 0xCEC JUMP JUMPDEST PUSH2 0x131 JUMP JUMPDEST PUSH1 0x40 MLOAD PUSH2 0x83 SWAP2 SWAP1 PUSH2 0xD9B JUMP JUMPDEST PUSH1 0x40 MLOAD DUP1 SWAP2 SUB SWAP1 RETURN JUMPDEST PUSH0 PUSH1 0x60 DUP1 PUSH0 DUP1 PUSH0 PUSH1 0x60 PUSH2 0x9D PUSH2 0x265 JUMP JUMPDEST PUSH2 0xA5 PUSH2 0x29F JUMP JUMPDEST CHAINID ADDRESS PUSH0 DUP1 SHL PUSH0 PUSH8 0xFFFFFFFFFFFFFFFF DUP2 GT ISZERO PUSH2 0xC4 JUMPI PUSH2 0xC3 PUSH2 0xDBB JUMP JUMPDEST JUMPDEST PUSH1 0x40 MLOAD SWAP1 DUP1 DUP3 MSTORE DUP1 PUSH1 0x20 MUL PUSH1 0x20 ADD DUP3 ADD PUSH1 0x40 MSTORE DUP1 ISZERO PUSH2 0xF2 JUMPI DUP2 PUSH1 0x20 ADD PUSH1 0x20 DUP3 MUL DUP1 CALLDATASIZE DUP4 CALLDATACOPY DUP1 DUP3 ADD SWAP2 POP POP SWAP1 POP JUMPDEST POP PUSH32 0xF00000000000000000000000000000000000000000000000000000000000000 SWAP6 SWAP5 SWAP4 SWAP3 SWAP2 SWAP1 SWAP7 POP SWAP7 POP SWAP7 POP SWAP7 POP SWAP7 POP SWAP7 POP SWAP7 POP SWAP1 SWAP2 SWAP3 SWAP4 SWAP5 SWAP6 SWAP7 JUMP JUMPDEST PUSH1 0x60 DUP4 DUP4 DUP4 DUP1 DUP1 PUSH1 0x1F ADD PUSH1 0x20 DUP1 SWAP2 DIV MUL PUSH1 0x20 ADD PUSH1 0x40 MLOAD SWAP1 DUP2 ADD PUSH1 0x40 MSTORE DUP1 SWAP4 SWAP3 SWAP2 SWAP1 DUP2 DUP2 MSTORE PUSH1 0x20 ADD DUP4 DUP4 DUP1 DUP3 DUP5 CALLDATACOPY PUSH0 DUP2 DUP5 ADD MSTORE PUSH1 0x1F NOT PUSH1 0x1F DUP3 ADD AND SWAP1 POP DUP1 DUP4 ADD SWAP3 POP POP POP POP POP POP POP PUSH0 PUSH2 0x1CA PUSH32 0x51D137AE0E1FAE6E3B6559FED4442B35A85A9A39789838AD5C9EA05E7DA2DCE DUP5 PUSH1 0x40 MLOAD PUSH1 0x20 ADD PUSH2 0x1AF SWAP3 SWAP2 SWAP1 PUSH2 0xDE8 JUMP JUMPDEST PUSH1 0x40 MLOAD PUSH1 0x20 DUP2 DUP4 SUB SUB DUP2 MSTORE SWAP1 PUSH1 0x40 MSTORE DUP1 MLOAD SWAP1 PUSH1 0x20 ADD KECCAK256 PUSH2 0x2DA JUMP JUMPDEST SWAP1 POP PUSH0 PUSH2 0x1D7 DUP3 DUP5 PUSH2 0x2F3 JUMP JUMPDEST SWAP1 POP CALLER PUSH20 0xFFFFFFFFFFFFFFFFFFFFFFFFFFFFFFFFFFFFFFFF AND DUP2 PUSH20 0xFFFFFFFFFFFFFFFFFFFFFFFFFFFFFFFFFFFFFFFF AND EQ PUSH2 0x247 JUMPI PUSH1 0x40 MLOAD PUSH32 0x8C379A000000000000000000000000000000000000000000000000000000000 DUP2 MSTORE PUSH1 0x4 ADD PUSH2 0x23E SWAP1 PUSH2 0xE7F JUMP JUMPDEST PUSH1 0x40 MLOAD DUP1 SWAP2 SUB SWAP1 REVERT JUMPDEST PUSH2 0x258 PUSH2 0x252 PUSH2 0x31D JUMP JUMPDEST DUP10 PUSH2 0x32C JUMP JUMPDEST SWAP5 POP POP POP POP POP SWAP4 SWAP3 POP POP POP JUMP JUMPDEST PUSH1 0x60 PUSH2 0x29A PUSH0 PUSH32 0x0 PUSH2 0x340 SWAP1 SWAP2 SWAP1 PUSH4 0xFFFFFFFF AND JUMP JUMPDEST SWAP1 POP SWAP1 JUMP JUMPDEST PUSH1 0x60 PUSH2 0x2D5 PUSH1 0x1 PUSH32 0x0 PUSH2 0x340 SWAP1 SWAP2 SWAP1 PUSH4 0xFFFFFFFF AND JUMP JUMPDEST SWAP1 POP SWAP1 JUMP JUMPDEST PUSH0 PUSH2 0x2EC PUSH2 0x2E6 PUSH2 0x3ED JUMP JUMPDEST DUP4 PUSH2 0x4A3 JUMP JUMPDEST SWAP1 POP SWAP2 SWAP1 POP JUMP JUMPDEST PUSH0 DUP1 PUSH0 DUP1 PUSH2 0x301 DUP7 DUP7 PUSH2 0x4E3 JUMP JUMPDEST SWAP3 POP SWAP3 POP SWAP3 POP PUSH2 0x311 DUP3 DUP3 PUSH2 0x538 JUMP JUMPDEST DUP3 SWAP4 POP POP POP POP SWAP3 SWAP2 POP POP JUMP JUMPDEST PUSH0 PUSH2 0x327 PUSH0 PUSH2 0x69A JUMP JUMPDEST SWAP1 POP SWAP1 JUMP JUMPDEST PUSH1 0x60 PUSH2 0x338 DUP4 DUP4 PUSH2 0x71E JUMP JUMPDEST SWAP1 POP SWAP3 SWAP2 POP POP JUMP JUMPDEST PUSH1 0x60 PUSH1 0xFF PUSH0 SHL DUP4 EQ PUSH2 0x35C JUMPI PUSH2 0x355 DUP4 PUSH2 0x7A8 JUMP JUMPDEST SWAP1 POP PUSH2 0x3E7 JUMP JUMPDEST DUP2 DUP1 SLOAD PUSH2 0x368 SWAP1 PUSH2 0xECA JUMP JUMPDEST DUP1 PUSH1 0x1F ADD PUSH1 0x20 DUP1 SWAP2 DIV MUL PUSH1 0x20 ADD PUSH1 0x40 MLOAD SWAP1 DUP2 ADD PUSH1 0x40 MSTORE DUP1 SWAP3 SWAP2 SWAP1 DUP2 DUP2 MSTORE PUSH1 0x20 ADD DUP3 DUP1 SLOAD PUSH2 0x394 SWAP1 PUSH2 0xECA JUMP JUMPDEST DUP1 ISZERO PUSH2 0x3DF JUMPI DUP1 PUSH1 0x1F LT PUSH2 0x3B6 JUMPI PUSH2 0x100 DUP1 DUP4 SLOAD DIV MUL DUP4 MSTORE SWAP2 PUSH1 0x20 ADD SWAP2 PUSH2 0x3DF JUMP JUMPDEST DUP3 ADD SWAP2 SWAP1 PUSH0 MSTORE PUSH1 0x20 PUSH0 KECCAK256 SWAP1 JUMPDEST DUP2 SLOAD DUP2 MSTORE SWAP1 PUSH1 0x1 ADD SWAP1 PUSH1 0x20 ADD DUP1 DUP4 GT PUSH2 0x3C2 JUMPI DUP3 SWAP1 SUB PUSH1 0x1F AND DUP3 ADD SWAP2 JUMPDEST POP POP POP POP POP SWAP1 POP JUMPDEST SWAP3 SWAP2 POP POP JUMP JUMPDEST PUSH0 PUSH32 0x0 PUSH20 0xFFFFFFFFFFFFFFFFFFFFFFFFFFFFFFFFFFFFFFFF AND ADDRESS PUSH20 0xFFFFFFFFFFFFFFFFFFFFFFFFFFFFFFFFFFFFFFFF AND EQ DUP1 ISZERO PUSH2 0x468 JUMPI POP PUSH32 0x0 CHAINID EQ JUMPDEST ISZERO PUSH2 0x495 JUMPI PUSH32 0x0 SWAP1 POP PUSH2 0x4A0 JUMP JUMPDEST PUSH2 0x49D PUSH2 0x81A JUMP JUMPDEST SWAP1 POP JUMPDEST SWAP1 JUMP JUMPDEST PUSH0 PUSH1 0x40 MLOAD PUSH32 0x1901000000000000000000000000000000000000000000000000000000000000 DUP2 MSTORE DUP4 PUSH1 0x2 DUP3 ADD MSTORE DUP3 PUSH1 0x22 DUP3 ADD MSTORE PUSH1 0x42 DUP2 KECCAK256 SWAP2 POP POP SWAP3 SWAP2 POP POP JUMP JUMPDEST PUSH0 DUP1 PUSH0 PUSH1 0x41 DUP5 MLOAD SUB PUSH2 0x523 JUMPI PUSH0 DUP1 PUSH0 PUSH1 0x20 DUP8 ADD MLOAD SWAP3 POP PUSH1 0x40 DUP8 ADD MLOAD SWAP2 POP PUSH1 0x60 DUP8 ADD MLOAD PUSH0 BYTE SWAP1 POP PUSH2 0x515 DUP9 DUP3 DUP6 DUP6 PUSH2 0x8AF JUMP JUMPDEST SWAP6 POP SWAP6 POP SWAP6 POP POP POP POP PUSH2 0x531 JUMP JUMPDEST PUSH0 PUSH1 0x2 DUP6 MLOAD PUSH0 SHL SWAP3 POP SWAP3 POP SWAP3 POP JUMPDEST SWAP3 POP SWAP3 POP SWAP3 JUMP JUMPDEST PUSH0 PUSH1 0x3 DUP2 GT ISZERO PUSH2 0x54B JUMPI PUSH2 0x54A PUSH2 0xEFA JUMP JUMPDEST JUMPDEST DUP3 PUSH1 0x3 DUP2 GT ISZERO PUSH2 0x55E JUMPI PUSH2 0x55D PUSH2 0xEFA JUMP JUMPDEST JUMPDEST SUB ISZERO PUSH2 0x696 JUMPI PUSH1 0x1 PUSH1 0x3 DUP2 GT ISZERO PUSH2 0x578 JUMPI PUSH2 0x577 PUSH2 0xEFA JUMP JUMPDEST JUMPDEST DUP3 PUSH1 0x3 DUP2 GT ISZERO PUSH2 0x58B JUMPI PUSH2 0x58A PUSH2 0xEFA JUMP JUMPDEST JUMPDEST SUB PUSH2 0x5C2 JUMPI PUSH1 0x40 MLOAD PUSH32 0xF645EEDF00000000000000000000000000000000000000000000000000000000 DUP2 MSTORE PUSH1 0x4 ADD PUSH1 0x40 MLOAD DUP1 SWAP2 SUB SWAP1 REVERT JUMPDEST PUSH1 0x2 PUSH1 0x3 DUP2 GT ISZERO PUSH2 0x5D6 JUMPI PUSH2 0x5D5 PUSH2 0xEFA JUMP JUMPDEST JUMPDEST DUP3 PUSH1 0x3 DUP2 GT ISZERO PUSH2 0x5E9 JUMPI PUSH2 0x5E8 PUSH2 0xEFA JUMP JUMPDEST JUMPDEST SUB PUSH2 0x62D JUMPI DUP1 PUSH0 SHR PUSH1 0x40 MLOAD PUSH32 0xFCE698F700000000000000000000000000000000000000000000000000000000 DUP2 MSTORE PUSH1 0x4 ADD PUSH2 0x624 SWAP2 SWAP1 PUSH2 0xF27 JUMP JUMPDEST PUSH1 0x40 MLOAD DUP1 SWAP2 SUB SWAP1 REVERT JUMPDEST PUSH1 0x3 DUP1 DUP2 GT ISZERO PUSH2 0x640 JUMPI PUSH2 0x63F PUSH2 0xEFA JUMP JUMPDEST JUMPDEST DUP3 PUSH1 0x3 DUP2 GT ISZERO PUSH2 0x653 JUMPI PUSH2 0x652 PUSH2 0xEFA JUMP JUMPDEST JUMPDEST SUB PUSH2 0x695 JUMPI DUP1 PUSH1 0x40 MLOAD PUSH32 0xD78BCE0C00000000000000000000000000000000000000000000000000000000 DUP2 MSTORE PUSH1 0x4 ADD PUSH2 0x68C SWAP2 SWAP1 PUSH2 0xF40 JUMP JUMPDEST PUSH1 0x40 MLOAD DUP1 SWAP2 SUB SWAP1 REVERT JUMPDEST JUMPDEST POP POP JUMP JUMPDEST PUSH0 PUSH1 0x5D PUSH20 0xFFFFFFFFFFFFFFFFFFFFFFFFFFFFFFFFFFFFFFFF AND PUSH4 0x900D294E DUP4 PUSH1 0xF8 SHL PUSH1 0x40 MLOAD DUP3 PUSH4 0xFFFFFFFF AND PUSH1 0xE0 SHL DUP2 MSTORE PUSH1 0x4 ADD PUSH2 0x6D8 SWAP2 SWAP1 PUSH2 0xF59 JUMP JUMPDEST PUSH1 0x20 PUSH1 0x40 MLOAD DUP1 DUP4 SUB DUP2 DUP7 GAS STATICCALL ISZERO DUP1 ISZERO PUSH2 0x6F3 JUMPI RETURNDATASIZE PUSH0 DUP1 RETURNDATACOPY RETURNDATASIZE PUSH0 REVERT JUMPDEST POP POP POP POP PUSH1 0x40 MLOAD RETURNDATASIZE PUSH1 0x1F NOT PUSH1 0x1F DUP3 ADD AND DUP3 ADD DUP1 PUSH1 0x40 MSTORE POP DUP2 ADD SWAP1 PUSH2 0x717 SWAP2 SWAP1 PUSH2 0xF9C JUMP JUMPDEST SWAP1 POP SWAP2 SWAP1 POP JUMP JUMPDEST PUSH1 0x60 PUSH1 0x5D PUSH20 0xFFFFFFFFFFFFFFFFFFFFFFFFFFFFFFFFFFFFFFFF AND PUSH4 0xD6AD57CD DUP5 DUP5 PUSH0 SHR PUSH1 0x40 MLOAD DUP4 PUSH4 0xFFFFFFFF AND PUSH1 0xE0 SHL DUP2 MSTORE PUSH1 0x4 ADD PUSH2 0x75E SWAP3 SWAP2 SWAP1 PUSH2 0xFC7 JUMP JUMPDEST PUSH0 PUSH1 0x40 MLOAD DUP1 DUP4 SUB DUP2 DUP7 GAS STATICCALL ISZERO DUP1 ISZERO PUSH2 0x778 JUMPI RETURNDATASIZE PUSH0 DUP1 RETURNDATACOPY RETURNDATASIZE PUSH0 REVERT JUMPDEST POP POP POP POP PUSH1 0x40 MLOAD RETURNDATASIZE PUSH0 DUP3 RETURNDATACOPY RETURNDATASIZE PUSH1 0x1F NOT PUSH1 0x1F DUP3 ADD AND DUP3 ADD DUP1 PUSH1 0x40 MSTORE POP DUP2 ADD SWAP1 PUSH2 0x7A0 SWAP2 SWAP1 PUSH2 0x10DB JUMP JUMPDEST SWAP1 POP SWAP3 SWAP2 POP POP JUMP JUMPDEST PUSH1 0x60 PUSH0 PUSH2 0x7B4 DUP4 PUSH2 0x996 JUMP JUMPDEST SWAP1 POP PUSH0 PUSH1 0x20 PUSH8 0xFFFFFFFFFFFFFFFF DUP2 GT ISZERO PUSH2 0x7D2 JUMPI PUSH2 0x7D1 PUSH2 0xDBB JUMP JUMPDEST JUMPDEST PUSH1 0x40 MLOAD SWAP1 DUP1 DUP3 MSTORE DUP1 PUSH1 0x1F ADD PUSH1 0x1F NOT AND PUSH1 0x20 ADD DUP3 ADD PUSH1 0x40 MSTORE DUP1 ISZERO PUSH2 0x804 JUMPI DUP2 PUSH1 0x20 ADD PUSH1 0x1 DUP3 MUL DUP1 CALLDATASIZE DUP4 CALLDATACOPY DUP1 DUP3 ADD SWAP2 POP POP SWAP1 POP JUMPDEST POP SWAP1 POP DUP2 DUP2 MSTORE DUP4 PUSH1 0x20 DUP3 ADD MSTORE DUP1 SWAP3 POP POP POP SWAP2 SWAP1 POP JUMP JUMPDEST PUSH0 PUSH32 0x8B73C3C69BB8FE3D512ECC4CF759CC79239F7B179B0FFACAA9A75D522B39400F PUSH32 0x0 PUSH32 0x0 CHAINID ADDRESS PUSH1 0x40 MLOAD PUSH1 0x20 ADD PUSH2 0x894 SWAP6 SWAP5 SWAP4 SWAP3 SWAP2 SWAP1 PUSH2 0x1122 JUMP JUMPDEST PUSH1 0x40 MLOAD PUSH1 0x20 DUP2 DUP4 SUB SUB DUP2 MSTORE SWAP1 PUSH1 0x40 MSTORE DUP1 MLOAD SWAP1 PUSH1 0x20 ADD KECCAK256 SWAP1 POP SWAP1 JUMP JUMPDEST PUSH0 DUP1 PUSH0 PUSH32 0x7FFFFFFFFFFFFFFFFFFFFFFFFFFFFFFF5D576E7357A4501DDFE92F46681B20A0 DUP5 PUSH0 SHR GT ISZERO PUSH2 0x8EB JUMPI PUSH0 PUSH1 0x3 DUP6 SWAP3 POP SWAP3 POP SWAP3 POP PUSH2 0x98C JUMP JUMPDEST PUSH0 PUSH1 0x1 DUP9 DUP9 DUP9 DUP9 PUSH1 0x40 MLOAD PUSH0 DUP2 MSTORE PUSH1 0x20 ADD PUSH1 0x40 MSTORE PUSH1 0x40 MLOAD PUSH2 0x90E SWAP5 SWAP4 SWAP3 SWAP2 SWAP1 PUSH2 0x118E JUMP JUMPDEST PUSH1 0x20 PUSH1 0x40 MLOAD PUSH1 0x20 DUP2 SUB SWAP1 DUP1 DUP5 SUB SWAP1 DUP6 GAS STATICCALL ISZERO DUP1 ISZERO PUSH2 0x92E JUMPI RETURNDATASIZE PUSH0 DUP1 RETURNDATACOPY RETURNDATASIZE PUSH0 REVERT JUMPDEST POP POP POP PUSH1 0x20 PUSH1 0x40 MLOAD SUB MLOAD SWAP1 POP PUSH0 PUSH20 0xFFFFFFFFFFFFFFFFFFFFFFFFFFFFFFFFFFFFFFFF AND DUP2 PUSH20 0xFFFFFFFFFFFFFFFFFFFFFFFFFFFFFFFFFFFFFFFF AND SUB PUSH2 0x97F JUMPI PUSH0 PUSH1 0x1 PUSH0 DUP1 SHL SWAP4 POP SWAP4 POP SWAP4 POP POP PUSH2 0x98C JUMP JUMPDEST DUP1 PUSH0 DUP1 PUSH0 SHL SWAP4 POP SWAP4 POP SWAP4 POP POP JUMPDEST SWAP5 POP SWAP5 POP SWAP5 SWAP2 POP POP JUMP JUMPDEST PUSH0 DUP1 PUSH1 0xFF DUP4 PUSH0 SHR AND SWAP1 POP PUSH1 0x1F DUP2 GT ISZERO PUSH2 0x9DB JUMPI PUSH1 0x40 MLOAD PUSH32 0xB3512B0C00000000000000000000000000000000000000000000000000000000 DUP2 MSTORE PUSH1 0x4 ADD PUSH1 0x40 MLOAD DUP1 SWAP2 SUB SWAP1 REVERT JUMPDEST DUP1 SWAP2 POP POP SWAP2 SWAP1 POP JUMP JUMPDEST PUSH0 PUSH32 0xFF00000000000000000000000000000000000000000000000000000000000000 DUP3 AND SWAP1 POP SWAP2 SWAP1 POP JUMP JUMPDEST PUSH2 0xA18 DUP2 PUSH2 0x9E4 JUMP JUMPDEST DUP3 MSTORE POP POP JUMP JUMPDEST PUSH0 DUP2 MLOAD SWAP1 POP SWAP2 SWAP1 POP JUMP JUMPDEST PUSH0 DUP3 DUP3 MSTORE PUSH1 0x20 DUP3 ADD SWAP1 POP SWAP3 SWAP2 POP POP JUMP JUMPDEST PUSH0 JUMPDEST DUP4 DUP2 LT ISZERO PUSH2 0xA55 JUMPI DUP1 DUP3 ADD MLOAD DUP2 DUP5 ADD MSTORE PUSH1 0x20 DUP2 ADD SWAP1 POP PUSH2 0xA3A JUMP JUMPDEST PUSH0 DUP5 DUP5 ADD MSTORE POP POP POP POP JUMP JUMPDEST PUSH0 PUSH1 0x1F NOT PUSH1 0x1F DUP4 ADD AND SWAP1 POP SWAP2 SWAP1 POP JUMP JUMPDEST PUSH0 PUSH2 0xA7A DUP3 PUSH2 0xA1E JUMP JUMPDEST PUSH2 0xA84 DUP2 DUP6 PUSH2 0xA28 JUMP JUMPDEST SWAP4 POP PUSH2 0xA94 DUP2 DUP6 PUSH1 0x20 DUP7 ADD PUSH2 0xA38 JUMP JUMPDEST PUSH2 0xA9D DUP2 PUSH2 0xA60 JUMP JUMPDEST DUP5 ADD SWAP2 POP POP SWAP3 SWAP2 POP POP JUMP JUMPDEST PUSH0 DUP2 SWAP1 POP SWAP2 SWAP1 POP JUMP JUMPDEST PUSH2 0xABA DUP2 PUSH2 0xAA8 JUMP JUMPDEST DUP3 MSTORE POP POP JUMP JUMPDEST PUSH0 PUSH20 0xFFFFFFFFFFFFFFFFFFFFFFFFFFFFFFFFFFFFFFFF DUP3 AND SWAP1 POP SWAP2 SWAP1 POP JUMP JUMPDEST PUSH0 PUSH2 0xAE9 DUP3 PUSH2 0xAC0 JUMP JUMPDEST SWAP1 POP SWAP2 SWAP1 POP JUMP JUMPDEST PUSH2 0xAF9 DUP2 PUSH2 0xADF JUMP JUMPDEST DUP3 MSTORE POP POP JUMP JUMPDEST PUSH0 DUP2 SWAP1 POP SWAP2 SWAP1 POP JUMP JUMPDEST PUSH2 0xB11 DUP2 PUSH2 0xAFF JUMP JUMPDEST DUP3 MSTORE POP POP JUMP JUMPDEST PUSH0 DUP2 MLOAD SWAP1 POP SWAP2 SWAP1 POP JUMP JUMPDEST PUSH0 DUP3 DUP3 MSTORE PUSH1 0x20 DUP3 ADD SWAP1 POP SWAP3 SWAP2 POP POP JUMP JUMPDEST PUSH0 DUP2 SWAP1 POP PUSH1 0x20 DUP3 ADD SWAP1 POP SWAP2 SWAP1 POP JUMP JUMPDEST PUSH2 0xB49 DUP2 PUSH2 0xAA8 JUMP JUMPDEST DUP3 MSTORE POP POP JUMP JUMPDEST PUSH0 PUSH2 0xB5A DUP4 DUP4 PUSH2 0xB40 JUMP JUMPDEST PUSH1 0x20 DUP4 ADD SWAP1 POP SWAP3 SWAP2 POP POP JUMP JUMPDEST PUSH0 PUSH1 0x20 DUP3 ADD SWAP1 POP SWAP2 SWAP1 POP JUMP JUMPDEST PUSH0 PUSH2 0xB7C DUP3 PUSH2 0xB17 JUMP JUMPDEST PUSH2 0xB86 DUP2 DUP6 PUSH2 0xB21 JUMP JUMPDEST SWAP4 POP PUSH2 0xB91 DUP4 PUSH2 0xB31 JUMP JUMPDEST DUP1 PUSH0 JUMPDEST DUP4 DUP2 LT ISZERO PUSH2 0xBC1 JUMPI DUP2 MLOAD PUSH2 0xBA8 DUP9 DUP3 PUSH2 0xB4F JUMP JUMPDEST SWAP8 POP PUSH2 0xBB3 DUP4 PUSH2 0xB66 JUMP JUMPDEST SWAP3 POP POP PUSH1 0x1 DUP2 ADD SWAP1 POP PUSH2 0xB94 JUMP JUMPDEST POP DUP6 SWAP4 POP POP POP POP SWAP3 SWAP2 POP POP JUMP JUMPDEST PUSH0 PUSH1 0xE0 DUP3 ADD SWAP1 POP PUSH2 0xBE1 PUSH0 DUP4 ADD DUP11 PUSH2 0xA0F JUMP JUMPDEST DUP2 DUP2 SUB PUSH1 0x20 DUP4 ADD MSTORE PUSH2 0xBF3 DUP2 DUP10 PUSH2 0xA70 JUMP JUMPDEST SWAP1 POP DUP2 DUP2 SUB PUSH1 0x40 DUP4 ADD MSTORE PUSH2 0xC07 DUP2 DUP9 PUSH2 0xA70 JUMP JUMPDEST SWAP1 POP PUSH2 0xC16 PUSH1 0x60 DUP4 ADD DUP8 PUSH2 0xAB1 JUMP JUMPDEST PUSH2 0xC23 PUSH1 0x80 DUP4 ADD DUP7 PUSH2 0xAF0 JUMP JUMPDEST PUSH2 0xC30 PUSH1 0xA0 DUP4 ADD DUP6 PUSH2 0xB08 JUMP JUMPDEST DUP2 DUP2 SUB PUSH1 0xC0 DUP4 ADD MSTORE PUSH2 0xC42 DUP2 DUP5 PUSH2 0xB72 JUMP JUMPDEST SWAP1 POP SWAP9 SWAP8 POP POP POP POP POP POP POP POP JUMP JUMPDEST PUSH0 PUSH1 0x40 MLOAD SWAP1 POP SWAP1 JUMP JUMPDEST PUSH0 DUP1 REVERT JUMPDEST PUSH0 DUP1 REVERT JUMPDEST PUSH2 0xC6A DUP2 PUSH2 0xAFF JUMP JUMPDEST DUP2 EQ PUSH2 0xC74 JUMPI PUSH0 DUP1 REVERT JUMPDEST POP JUMP JUMPDEST PUSH0 DUP2 CALLDATALOAD SWAP1 POP PUSH2 0xC85 DUP2 PUSH2 0xC61 JUMP JUMPDEST SWAP3 SWAP2 POP POP JUMP JUMPDEST PUSH0 DUP1 REVERT JUMPDEST PUSH0 DUP1 REVERT JUMPDEST PUSH0 DUP1 REVERT JUMPDEST PUSH0 DUP1 DUP4 PUSH1 0x1F DUP5 ADD SLT PUSH2 0xCAC JUMPI PUSH2 0xCAB PUSH2 0xC8B JUMP JUMPDEST JUMPDEST DUP3 CALLDATALOAD SWAP1 POP PUSH8 0xFFFFFFFFFFFFFFFF DUP2 GT ISZERO PUSH2 0xCC9 JUMPI PUSH2 0xCC8 PUSH2 0xC8F JUMP JUMPDEST JUMPDEST PUSH1 0x20 DUP4 ADD SWAP2 POP DUP4 PUSH1 0x1 DUP3 MUL DUP4 ADD GT ISZERO PUSH2 0xCE5 JUMPI PUSH2 0xCE4 PUSH2 0xC93 JUMP JUMPDEST JUMPDEST SWAP3 POP SWAP3 SWAP1 POP JUMP JUMPDEST PUSH0 DUP1 PUSH0 PUSH1 0x40 DUP5 DUP7 SUB SLT ISZERO PUSH2 0xD03 JUMPI PUSH2 0xD02 PUSH2 0xC59 JUMP JUMPDEST JUMPDEST PUSH0 PUSH2 0xD10 DUP7 DUP3 DUP8 ADD PUSH2 0xC77 JUMP JUMPDEST SWAP4 POP POP PUSH1 0x20 DUP5 ADD CALLDATALOAD PUSH8 0xFFFFFFFFFFFFFFFF DUP2 GT ISZERO PUSH2 0xD31 JUMPI PUSH2 0xD30 PUSH2 0xC5D JUMP JUMPDEST JUMPDEST PUSH2 0xD3D DUP7 DUP3 DUP8 ADD PUSH2 0xC97 JUMP JUMPDEST SWAP3 POP SWAP3 POP POP SWAP3 POP SWAP3 POP SWAP3 JUMP JUMPDEST PUSH0 DUP2 MLOAD SWAP1 POP SWAP2 SWAP1 POP JUMP JUMPDEST PUSH0 DUP3 DUP3 MSTORE PUSH1 0x20 DUP3 ADD SWAP1 POP SWAP3 SWAP2 POP POP JUMP JUMPDEST PUSH0 PUSH2 0xD6D DUP3 PUSH2 0xD49 JUMP JUMPDEST PUSH2 0xD77 DUP2 DUP6 PUSH2 0xD53 JUMP JUMPDEST SWAP4 POP PUSH2 0xD87 DUP2 DUP6 PUSH1 0x20 DUP7 ADD PUSH2 0xA38 JUMP JUMPDEST PUSH2 0xD90 DUP2 PUSH2 0xA60 JUMP JUMPDEST DUP5 ADD SWAP2 POP POP SWAP3 SWAP2 POP POP JUMP JUMPDEST PUSH0 PUSH1 0x20 DUP3 ADD SWAP1 POP DUP2 DUP2 SUB PUSH0 DUP4 ADD MSTORE PUSH2 0xDB3 DUP2 DUP5 PUSH2 0xD63 JUMP JUMPDEST SWAP1 POP SWAP3 SWAP2 POP POP JUMP JUMPDEST PUSH32 0x4E487B7100000000000000000000000000000000000000000000000000000000 PUSH0 MSTORE PUSH1 0x41 PUSH1 0x4 MSTORE PUSH1 0x24 PUSH0 REVERT JUMPDEST PUSH0 PUSH1 0x40 DUP3 ADD SWAP1 POP PUSH2 0xDFB PUSH0 DUP4 ADD DUP6 PUSH2 0xB08 JUMP JUMPDEST PUSH2 0xE08 PUSH1 0x20 DUP4 ADD DUP5 PUSH2 0xB08 JUMP JUMPDEST SWAP4 SWAP3 POP POP POP JUMP JUMPDEST PUSH32 0x454950373132207369676E657220616E64207472616E73616374696F6E207369 PUSH0 DUP3 ADD MSTORE PUSH32 0x676E657220646F206E6F74206D61746368000000000000000000000000000000 PUSH1 0x20 DUP3 ADD MSTORE POP JUMP JUMPDEST PUSH0 PUSH2 0xE69 PUSH1 0x31 DUP4 PUSH2 0xA28 JUMP JUMPDEST SWAP2 POP PUSH2 0xE74 DUP3 PUSH2 0xE0F JUMP JUMPDEST PUSH1 0x40 DUP3 ADD SWAP1 POP SWAP2 SWAP1 POP JUMP JUMPDEST PUSH0 PUSH1 0x20 DUP3 ADD SWAP1 POP DUP2 DUP2 SUB PUSH0 DUP4 ADD MSTORE PUSH2 0xE96 DUP2 PUSH2 0xE5D JUMP JUMPDEST SWAP1 POP SWAP2 SWAP1 POP JUMP JUMPDEST PUSH32 0x4E487B7100000000000000000000000000000000000000000000000000000000 PUSH0 MSTORE PUSH1 0x22 PUSH1 0x4 MSTORE PUSH1 0x24 PUSH0 REVERT JUMPDEST PUSH0 PUSH1 0x2 DUP3 DIV SWAP1 POP PUSH1 0x1 DUP3 AND DUP1 PUSH2 0xEE1 JUMPI PUSH1 0x7F DUP3 AND SWAP2 POP JUMPDEST PUSH1 0x20 DUP3 LT DUP2 SUB PUSH2 0xEF4 JUMPI PUSH2 0xEF3 PUSH2 0xE9D JUMP JUMPDEST JUMPDEST POP SWAP2 SWAP1 POP JUMP JUMPDEST PUSH32 0x4E487B7100000000000000000000000000000000000000000000000000000000 PUSH0 MSTORE PUSH1 0x21 PUSH1 0x4 MSTORE PUSH1 0x24 PUSH0 REVERT JUMPDEST PUSH0 PUSH1 0x20 DUP3 ADD SWAP1 POP PUSH2 0xF3A PUSH0 DUP4 ADD DUP5 PUSH2 0xAB1 JUMP JUMPDEST SWAP3 SWAP2 POP POP JUMP JUMPDEST PUSH0 PUSH1 0x20 DUP3 ADD SWAP1 POP PUSH2 0xF53 PUSH0 DUP4 ADD DUP5 PUSH2 0xB08 JUMP JUMPDEST SWAP3 SWAP2 POP POP JUMP JUMPDEST PUSH0 PUSH1 0x20 DUP3 ADD SWAP1 POP PUSH2 0xF6C PUSH0 DUP4 ADD DUP5 PUSH2 0xA0F JUMP JUMPDEST SWAP3 SWAP2 POP POP JUMP JUMPDEST PUSH2 0xF7B DUP2 PUSH2 0xAA8 JUMP JUMPDEST DUP2 EQ PUSH2 0xF85 JUMPI PUSH0 DUP1 REVERT JUMPDEST POP JUMP JUMPDEST PUSH0 DUP2 MLOAD SWAP1 POP PUSH2 0xF96 DUP2 PUSH2 0xF72 JUMP JUMPDEST SWAP3 SWAP2 POP POP JUMP JUMPDEST PUSH0 PUSH1 0x20 DUP3 DUP5 SUB SLT ISZERO PUSH2 0xFB1 JUMPI PUSH2 0xFB0 PUSH2 0xC59 JUMP JUMPDEST JUMPDEST PUSH0 PUSH2 0xFBE DUP5 DUP3 DUP6 ADD PUSH2 0xF88 JUMP JUMPDEST SWAP2 POP POP SWAP3 SWAP2 POP POP JUMP JUMPDEST PUSH0 PUSH1 0x40 DUP3 ADD SWAP1 POP PUSH2 0xFDA PUSH0 DUP4 ADD DUP6 PUSH2 0xAB1 JUMP JUMPDEST PUSH2 0xFE7 PUSH1 0x20 DUP4 ADD DUP5 PUSH2 0xAB1 JUMP JUMPDEST SWAP4 SWAP3 POP POP POP JUMP JUMPDEST PUSH0 DUP1 REVERT JUMPDEST PUSH2 0xFFB DUP3 PUSH2 0xA60 JUMP JUMPDEST DUP2 ADD DUP2 DUP2 LT PUSH8 0xFFFFFFFFFFFFFFFF DUP3 GT OR ISZERO PUSH2 0x101A JUMPI PUSH2 0x1019 PUSH2 0xDBB JUMP JUMPDEST JUMPDEST DUP1 PUSH1 0x40 MSTORE POP POP POP JUMP JUMPDEST PUSH0 PUSH2 0x102C PUSH2 0xC50 JUMP JUMPDEST SWAP1 POP PUSH2 0x1038 DUP3 DUP3 PUSH2 0xFF2 JUMP JUMPDEST SWAP2 SWAP1 POP JUMP JUMPDEST PUSH0 PUSH8 0xFFFFFFFFFFFFFFFF DUP3 GT ISZERO PUSH2 0x1057 JUMPI PUSH2 0x1056 PUSH2 0xDBB JUMP JUMPDEST JUMPDEST PUSH2 0x1060 DUP3 PUSH2 0xA60 JUMP JUMPDEST SWAP1 POP PUSH1 0x20 DUP2 ADD SWAP1 POP SWAP2 SWAP1 POP JUMP JUMPDEST PUSH0 PUSH2 0x107F PUSH2 0x107A DUP5 PUSH2 0x103D JUMP JUMPDEST PUSH2 0x1023 JUMP JUMPDEST SWAP1 POP DUP3 DUP2 MSTORE PUSH1 0x20 DUP2 ADD DUP5 DUP5 DUP5 ADD GT ISZERO PUSH2 0x109B JUMPI PUSH2 0x109A PUSH2 0xFEE JUMP JUMPDEST JUMPDEST PUSH2 0x10A6 DUP5 DUP3 DUP6 PUSH2 0xA38 JUMP JUMPDEST POP SWAP4 SWAP3 POP POP POP JUMP JUMPDEST PUSH0 DUP3 PUSH1 0x1F DUP4 ADD SLT PUSH2 0x10C2 JUMPI PUSH2 0x10C1 PUSH2 0xC8B JUMP JUMPDEST JUMPDEST DUP2 MLOAD PUSH2 0x10D2 DUP5 DUP3 PUSH1 0x20 DUP7 ADD PUSH2 0x106D JUMP JUMPDEST SWAP2 POP POP SWAP3 SWAP2 POP POP JUMP JUMPDEST PUSH0 PUSH1 0x20 DUP3 DUP5 SUB SLT ISZERO PUSH2 0x10F0 JUMPI PUSH2 0x10EF PUSH2 0xC59 JUMP JUMPDEST JUMPDEST PUSH0 DUP3 ADD MLOAD PUSH8 0xFFFFFFFFFFFFFFFF DUP2 GT ISZERO PUSH2 0x110D JUMPI PUSH2 0x110C PUSH2 0xC5D JUMP JUMPDEST JUMPDEST PUSH2 0x1119 DUP5 DUP3 DUP6 ADD PUSH2 0x10AE JUMP JUMPDEST SWAP2 POP POP SWAP3 SWAP2 POP POP JUMP JUMPDEST PUSH0 PUSH1 0xA0 DUP3 ADD SWAP1 POP PUSH2 0x1135 PUSH0 DUP4 ADD DUP9 PUSH2 0xB08 JUMP JUMPDEST PUSH2 0x1142 PUSH1 0x20 DUP4 ADD DUP8 PUSH2 0xB08 JUMP JUMPDEST PUSH2 0x114F PUSH1 0x40 DUP4 ADD DUP7 PUSH2 0xB08 JUMP JUMPDEST PUSH2 0x115C PUSH1 0x60 DUP4 ADD DUP6 PUSH2 0xAB1 JUMP JUMPDEST PUSH2 0x1169 PUSH1 0x80 DUP4 ADD DUP5 PUSH2 0xAF0 JUMP JUMPDEST SWAP7 SWAP6 POP POP POP POP POP POP JUMP JUMPDEST PUSH0 PUSH1 0xFF DUP3 AND SWAP1 POP SWAP2 SWAP1 POP JUMP JUMPDEST PUSH2 0x1188 DUP2 PUSH2 0x1173 JUMP JUMPDEST DUP3 MSTORE POP POP JUMP JUMPDEST PUSH0 PUSH1 0x80 DUP3 ADD SWAP1 POP PUSH2 0x11A1 PUSH0 DUP4 ADD DUP8 PUSH2 0xB08 JUMP JUMPDEST PUSH2 0x11AE PUSH1 0x20 DUP4 ADD DUP7 PUSH2 0x117F JUMP JUMPDEST PUSH2 0x11BB PUSH1 0x40 DUP4 ADD DUP6 PUSH2 0xB08 JUMP JUMPDEST PUSH2 0x11C8 PUSH1 0x60 DUP4 ADD DUP5 PUSH2 0xB08 JUMP JUMPDEST SWAP6 SWAP5 POP POP POP POP POP JUMP INVALID LOG2 PUSH5 0x6970667358 0x22 SLT KECCAK256 0xB0 0xF9 MSTORE8 POP SWAP2 DELEGATECALL 0xC6 0xF6 INVALID TSTORE PUSH27 0x82125D52673FB1E38E3820FC605D4D2FC20277968364736F6C6343 STOP ADDMOD XOR STOP CALLER "
		},
		"gasEstimates": {
			"creation": {
				"codeDepositCost": "923000",
				"executionCost": "infinite",
				"totalCost": "infinite"
			},
			"external": {
				"eip712Domain()": "infinite",
				"revealSecret(bytes32,bytes)": "infinite"
			}
		},
		"methodIdentifiers": {
			"eip712Domain()": "84b0196e",
			"revealSecret(bytes32,bytes)": "92805a4a"
		}
	},
	"abi": [
		{
			"inputs": [],
			"stateMutability": "nonpayable",
			"type": "constructor"
		},
		{
			"inputs": [],
			"name": "ECDSAInvalidSignature",
			"type": "error"
		},
		{
			"inputs": [
				{
					"internalType": "uint256",
					"name": "length",
					"type": "uint256"
				}
			],
			"name": "ECDSAInvalidSignatureLength",
			"type": "error"
		},
		{
			"inputs": [
				{
					"internalType": "bytes32",
					"name": "s",
					"type": "bytes32"
				}
			],
			"name": "ECDSAInvalidSignatureS",
			"type": "error"
		},
		{
			"inputs": [],
			"name": "InvalidShortString",
			"type": "error"
		},
		{
			"inputs": [
				{
					"internalType": "string",
					"name": "str",
					"type": "string"
				}
			],
			"name": "StringTooLong",
			"type": "error"
		},
		{
			"anonymous": false,
			"inputs": [],
			"name": "EIP712DomainChanged",
			"type": "event"
		},
		{
			"inputs": [],
			"name": "eip712Domain",
			"outputs": [
				{
					"internalType": "bytes1",
					"name": "fields",
					"type": "bytes1"
				},
				{
					"internalType": "string",
					"name": "name",
					"type": "string"
				},
				{
					"internalType": "string",
					"name": "version",
					"type": "string"
				},
				{
					"internalType": "uint256",
					"name": "chainId",
					"type": "uint256"
				},
				{
					"internalType": "address",
					"name": "verifyingContract",
					"type": "address"
				},
				{
					"internalType": "bytes32",
					"name": "salt",
					"type": "bytes32"
				},
				{
					"internalType": "uint256[]",
					"name": "extensions",
					"type": "uint256[]"
				}
			],
			"stateMutability": "view",
			"type": "function"
		},
		{
			"inputs": [
				{
					"internalType": "bytes32",
					"name": "publicKey",
					"type": "bytes32"
				},
				{
					"internalType": "bytes",
					"name": "signature",
					"type": "bytes"
				}
			],
			"name": "revealSecret",
			"outputs": [
				{
					"internalType": "bytes",
					"name": "",
					"type": "bytes"
				}
			],
			"stateMutability": "view",
			"type": "function"
		}
	]
}