{
	"data": {
		"bytecode": {
			"linkReferences": {},
			"object": "61016060405234801562000011575f80fd5b506040518060400160405280601381526020017f417574686f72697a6174696f6e20746f6b656e000000000000000000000000008152506040518060400160405280600181526020017f31000000000000000000000000000000000000000000000000000000000000008152508181620000955f836200017760201b90919060201c565b6101208181525050620000b36001826200017760201b90919060201c565b6101408181525050818051906020012060e08181525050808051906020012061010081815250504660a08181525050620000f2620001cc60201b60201c565b608081815250503073ffffffffffffffffffffffffffffffffffffffff1660c08173ffffffffffffffffffffffffffffffffffffffff1681525050505050503360025f6101000a81548173ffffffffffffffffffffffffffffffffffffffff021916908373ffffffffffffffffffffffffffffffffffffffff160217905550620007f6565b5f6020835110156200019c5762000194836200022860201b60201c565b9050620001c6565b82620001ae836200029260201b60201c565b5f019081620001be9190620004ff565b5060ff5f1b90505b92915050565b5f7f8b73c3c69bb8fe3d512ecc4cf759cc79239f7b179b0ffacaa9a75d522b39400f60e0516101005146306040516020016200020d95949392919062000651565b60405160208183030381529060405280519060200120905090565b5f80829050601f815111156200027757826040517f305a27a90000000000000000000000000000000000000000000000000000000081526004016200026e919062000736565b60405180910390fd5b805181620002859062000787565b5f1c175f1b915050919050565b5f819050919050565b5f81519050919050565b7f4e487b71000000000000000000000000000000000000000000000000000000005f52604160045260245ffd5b7f4e487b71000000000000000000000000000000000000000000000000000000005f52602260045260245ffd5b5f60028204905060018216806200031757607f821691505b6020821081036200032d576200032c620002d2565b5b50919050565b5f819050815f5260205f209050919050565b5f6020601f8301049050919050565b5f82821b905092915050565b5f60088302620003917fffffffffffffffffffffffffffffffffffffffffffffffffffffffffffffffff8262000354565b6200039d868362000354565b95508019841693508086168417925050509392505050565b5f819050919050565b5f819050919050565b5f620003e7620003e1620003db84620003b5565b620003be565b620003b5565b9050919050565b5f819050919050565b6200040283620003c7565b6200041a6200041182620003ee565b84845462000360565b825550505050565b5f90565b6200043062000422565b6200043d818484620003f7565b505050565b5b818110156200046457620004585f8262000426565b60018101905062000443565b5050565b601f821115620004b3576200047d8162000333565b620004888462000345565b8101602085101562000498578190505b620004b0620004a78562000345565b83018262000442565b50505b505050565b5f82821c905092915050565b5f620004d55f1984600802620004b8565b1980831691505092915050565b5f620004ef8383620004c4565b9150826002028217905092915050565b6200050a826200029b565b67ffffffffffffffff811115620005265762000525620002a5565b5b620005328254620002ff565b6200053f82828562000468565b5f60209050601f83116001811462000575575f841562000560578287015190505b6200056c8582620004e2565b865550620005db565b601f198416620005858662000333565b5f5b82811015620005ae5784890151825560018201915060208501945060208101905062000587565b86831015620005ce5784890151620005ca601f891682620004c4565b8355505b6001600288020188555050505b505050505050565b5f819050919050565b620005f781620005e3565b82525050565b6200060881620003b5565b82525050565b5f73ffffffffffffffffffffffffffffffffffffffff82169050919050565b5f62000639826200060e565b9050919050565b6200064b816200062d565b82525050565b5f60a082019050620006665f830188620005ec565b620006756020830187620005ec565b620006846040830186620005ec565b620006936060830185620005fd565b620006a2608083018462000640565b9695505050505050565b5f82825260208201905092915050565b5f5b83811015620006db578082015181840152602081019050620006be565b5f8484015250505050565b5f601f19601f8301169050919050565b5f62000702826200029b565b6200070e8185620006ac565b935062000720818560208601620006bc565b6200072b81620006e6565b840191505092915050565b5f6020820190508181035f830152620007508184620006f6565b905092915050565b5f81519050919050565b5f819050602082019050919050565b5f6200077e8251620005e3565b80915050919050565b5f620007938262000758565b826200079f8462000762565b9050620007ac8162000771565b92506020821015620007ef57620007ea7fffffffffffffffffffffffffffffffffffffffffffffffffffffffffffffffff8360200360080262000354565b831692505b5050919050565b60805160a05160c05160e05161010051610120516101405161147b620008395f395f61088901525f61084e01525f50505f50505f50505f50505f505061147b5ff3fe608060405234801561000f575f80fd5b50600436106100a7575f3560e01c8063913b722c1161006f578063913b722c1461016b578063e298581214610189578063efeb5e58146101a5578063f732a537146101d5578063f8858386146101df578063ff2135f71461020f576100a7565b806309eb0a95146100ab578063204fc0cd146100db57806384b0196e1461010b5780638da5cb5b1461012f57806390f25eb31461014d575b5f80fd5b6100c560048036038101906100c09190610bb3565b610219565b6040516100d29190610c17565b60405180910390f35b6100f560048036038101906100f09190610bb3565b610239565b6040516101029190610c17565b60405180910390f35b610113610259565b6040516101269796959493929190610e11565b60405180910390f35b6101376102fe565b6040516101449190610e93565b60405180910390f35b610155610323565b6040516101629190610f72565b60405180910390f35b6101736103a4565b6040516101809190610f72565b60405180910390f35b6101a3600480360381019061019e9190610ff3565b610425565b005b6101bf60048036038101906101ba9190610bb3565b61059c565b6040516101cc9190611080565b60405180910390f35b6101dd6105d3565b005b6101f960048036038101906101f49190610bb3565b6106f1565b6040516102069190611080565b60405180910390f35b610217610728565b005b60038181548110610228575f80fd5b905f5260205f20015f915090505481565b60048181548110610248575f80fd5b905f5260205f20015f915090505481565b5f6060805f805f606061026a610846565b610272610880565b46305f801b5f67ffffffffffffffff81111561029157610290611099565b5b6040519080825280602002602001820160405280156102bf5781602001602082028036833780820191505090505b507f0f00000000000000000000000000000000000000000000000000000000000000959493929190965096509650965096509650965090919293949596565b60025f9054906101000a900473ffffffffffffffffffffffffffffffffffffffff1681565b6060600680548060200260200160405190810160405280929190818152602001828054801561039a57602002820191905f5260205f20905f905b82829054906101000a900463ffffffff1663ffffffff168152602001906004019060208260030104928301926001038202915080841161035d5790505b5050505050905090565b6060600580548060200260200160405190810160405280929190818152602001828054801561041b57602002820191905f5260205f20905f905b82829054906101000a900463ffffffff1663ffffffff16815260200190600401906020826003010492830192600103820291508084116103de5790505b5050505050905090565b60025f9054906101000a900473ffffffffffffffffffffffffffffffffffffffff1673ffffffffffffffffffffffffffffffffffffffff163373ffffffffffffffffffffffffffffffffffffffff16146104b4576040517f08c379a00000000000000000000000000000000000000000000000000000000081526004016104ab90611136565b60405180910390fd5b600361050285858080601f0160208091040260200160405190810160405280939291908181526020018383808284375f81840152601f19601f820116905080830192505050505050506108bb565b908060018154018082558091505060019003905f5260205f20015f9091909190915055600461057383838080601f0160208091040260200160405190810160405280939291908181526020018383808284375f81840152601f19601f820116905080830192505050505050506108bb565b908060018154018082558091505060019003905f5260205f20015f909190919091505550505050565b600581815481106105ab575f80fd5b905f5260205f209060089182820401919006600402915054906101000a900463ffffffff1681565b60025f9054906101000a900473ffffffffffffffffffffffffffffffffffffffff1673ffffffffffffffffffffffffffffffffffffffff163373ffffffffffffffffffffffffffffffffffffffff1614610662576040517f08c379a0000000000000000000000000000000000000000000000000000000008152600401610659906111c4565b60405180910390fd5b5f5b6003805490508110156106ee5760056106986003838154811061068a576106896111e2565b5b905f5260205f2001546108ce565b908060018154018082558091505060019003905f5260205f2090600891828204019190066004029091909190916101000a81548163ffffffff021916908363ffffffff1602179055508080600101915050610664565b50565b60068181548110610700575f80fd5b905f5260205f209060089182820401919006600402915054906101000a900463ffffffff1681565b60025f9054906101000a900473ffffffffffffffffffffffffffffffffffffffff1673ffffffffffffffffffffffffffffffffffffffff163373ffffffffffffffffffffffffffffffffffffffff16146107b7576040517f08c379a00000000000000000000000000000000000000000000000000000000081526004016107ae9061127f565b60405180910390fd5b5f5b6004805490508110156108435760066107ed600483815481106107df576107de6111e2565b5b905f5260205f2001546108ce565b908060018154018082558091505060019003905f5260205f2090600891828204019190066004029091909190916101000a81548163ffffffff021916908363ffffffff16021790555080806001019150506107b9565b50565b606061087b5f7f00000000000000000000000000000000000000000000000000000000000000006108df90919063ffffffff16565b905090565b60606108b660017f00000000000000000000000000000000000000000000000000000000000000006108df90919063ffffffff16565b905090565b5f6108c782600261098c565b9050919050565b5f6108d882610a37565b9050919050565b606060ff5f1b83146108fb576108f483610ab8565b9050610986565b818054610907906112ca565b80601f0160208091040260200160405190810160405280929190818152602001828054610933906112ca565b801561097e5780601f106109555761010080835404028352916020019161097e565b820191905f5260205f20905b81548152906001019060200180831161096157829003601f168201915b505050505090505b92915050565b5f80838360f81b6040516020016109a492919061135e565b6040516020818303038152906040529050605d73ffffffffffffffffffffffffffffffffffffffff16634b252ec8826040518263ffffffff1660e01b81526004016109ef91906113cd565b602060405180830381865afa158015610a0a573d5f803e3d5ffd5b505050506040513d601f19601f82011682018060405250810190610a2e9190611401565b91505092915050565b5f605d73ffffffffffffffffffffffffffffffffffffffff16635a4ee440836040518263ffffffff1660e01b8152600401610a72919061142c565b602060405180830381865afa158015610a8d573d5f803e3d5ffd5b505050506040513d601f19601f82011682018060405250810190610ab19190611401565b9050919050565b60605f610ac483610b2a565b90505f602067ffffffffffffffff811115610ae257610ae1611099565b5b6040519080825280601f01601f191660200182016040528015610b145781602001600182028036833780820191505090505b5090508181528360208201528092505050919050565b5f8060ff835f1c169050601f811115610b6f576040517fb3512b0c00000000000000000000000000000000000000000000000000000000815260040160405180910390fd5b80915050919050565b5f80fd5b5f80fd5b5f819050919050565b610b9281610b80565b8114610b9c575f80fd5b50565b5f81359050610bad81610b89565b92915050565b5f60208284031215610bc857610bc7610b78565b5b5f610bd584828501610b9f565b91505092915050565b5f819050919050565b5f610c01610bfc610bf784610b80565b610bde565b610b80565b9050919050565b610c1181610be7565b82525050565b5f602082019050610c2a5f830184610c08565b92915050565b5f7fff0000000000000000000000000000000000000000000000000000000000000082169050919050565b610c6481610c30565b82525050565b5f81519050919050565b5f82825260208201905092915050565b5f5b83811015610ca1578082015181840152602081019050610c86565b5f8484015250505050565b5f601f19601f8301169050919050565b5f610cc682610c6a565b610cd08185610c74565b9350610ce0818560208601610c84565b610ce981610cac565b840191505092915050565b610cfd81610b80565b82525050565b5f73ffffffffffffffffffffffffffffffffffffffff82169050919050565b5f610d2c82610d03565b9050919050565b610d3c81610d22565b82525050565b5f819050919050565b610d5481610d42565b82525050565b5f81519050919050565b5f82825260208201905092915050565b5f819050602082019050919050565b610d8c81610b80565b82525050565b5f610d9d8383610d83565b60208301905092915050565b5f602082019050919050565b5f610dbf82610d5a565b610dc98185610d64565b9350610dd483610d74565b805f5b83811015610e04578151610deb8882610d92565b9750610df683610da9565b925050600181019050610dd7565b5085935050505092915050565b5f60e082019050610e245f83018a610c5b565b8181036020830152610e368189610cbc565b90508181036040830152610e4a8188610cbc565b9050610e596060830187610cf4565b610e666080830186610d33565b610e7360a0830185610d4b565b81810360c0830152610e858184610db5565b905098975050505050505050565b5f602082019050610ea65f830184610d33565b92915050565b5f81519050919050565b5f82825260208201905092915050565b5f819050602082019050919050565b5f63ffffffff82169050919050565b610eed81610ed5565b82525050565b5f610efe8383610ee4565b60208301905092915050565b5f602082019050919050565b5f610f2082610eac565b610f2a8185610eb6565b9350610f3583610ec6565b805f5b83811015610f65578151610f4c8882610ef3565b9750610f5783610f0a565b925050600181019050610f38565b5085935050505092915050565b5f6020820190508181035f830152610f8a8184610f16565b905092915050565b5f80fd5b5f80fd5b5f80fd5b5f8083601f840112610fb357610fb2610f92565b5b8235905067ffffffffffffffff811115610fd057610fcf610f96565b5b602083019150836001820283011115610fec57610feb610f9a565b5b9250929050565b5f805f806040858703121561100b5761100a610b78565b5b5f85013567ffffffffffffffff81111561102857611027610b7c565b5b61103487828801610f9e565b9450945050602085013567ffffffffffffffff81111561105757611056610b7c565b5b61106387828801610f9e565b925092505092959194509250565b61107a81610ed5565b82525050565b5f6020820190506110935f830184611071565b92915050565b7f4e487b71000000000000000000000000000000000000000000000000000000005f52604160045260245ffd5b7f4f6e6c79206f776e65722063616e2073746f72652062656e65666963696172695f8201527f6573000000000000000000000000000000000000000000000000000000000000602082015250565b5f611120602283610c74565b915061112b826110c6565b604082019050919050565b5f6020820190508181035f83015261114d81611114565b9050919050565b7f4f6e6c79206f776e65722063616e20646563727970742062656e6566696369615f8201527f7269657300000000000000000000000000000000000000000000000000000000602082015250565b5f6111ae602483610c74565b91506111b982611154565b604082019050919050565b5f6020820190508181035f8301526111db816111a2565b9050919050565b7f4e487b71000000000000000000000000000000000000000000000000000000005f52603260045260245ffd5b7f4f6e6c79206f776e65722063616e20646563727970742070657263656e7461675f8201527f6573000000000000000000000000000000000000000000000000000000000000602082015250565b5f611269602283610c74565b91506112748261120f565b604082019050919050565b5f6020820190508181035f8301526112968161125d565b9050919050565b7f4e487b71000000000000000000000000000000000000000000000000000000005f52602260045260245ffd5b5f60028204905060018216806112e157607f821691505b6020821081036112f4576112f361129d565b5b50919050565b5f81519050919050565b5f81905092915050565b5f611318826112fa565b6113228185611304565b9350611332818560208601610c84565b80840191505092915050565b5f819050919050565b61135861135382610c30565b61133e565b82525050565b5f611369828561130e565b91506113758284611347565b6001820191508190509392505050565b5f82825260208201905092915050565b5f61139f826112fa565b6113a98185611385565b93506113b9818560208601610c84565b6113c281610cac565b840191505092915050565b5f6020820190508181035f8301526113e58184611395565b905092915050565b5f815190506113fb81610b89565b92915050565b5f6020828403121561141657611415610b78565b5b5f611423848285016113ed565b91505092915050565b5f60208201905061143f5f830184610cf4565b9291505056fea2646970667358221220f4078f72fbbdfb4c5a63f5d3de4bbfee952c90aef70b7ee60b08f01b2a79e52164736f6c63430008180033",
			"opcodes": "PUSH2 0x160 PUSH1 0x40 MSTORE CALLVALUE DUP1 ISZERO PUSH3 0x11 JUMPI PUSH0 DUP1 REVERT JUMPDEST POP PUSH1 0x40 MLOAD DUP1 PUSH1 0x40 ADD PUSH1 0x40 MSTORE DUP1 PUSH1 0x13 DUP2 MSTORE PUSH1 0x20 ADD PUSH32 0x417574686F72697A6174696F6E20746F6B656E00000000000000000000000000 DUP2 MSTORE POP PUSH1 0x40 MLOAD DUP1 PUSH1 0x40 ADD PUSH1 0x40 MSTORE DUP1 PUSH1 0x1 DUP2 MSTORE PUSH1 0x20 ADD PUSH32 0x3100000000000000000000000000000000000000000000000000000000000000 DUP2 MSTORE POP DUP2 DUP2 PUSH3 0x95 PUSH0 DUP4 PUSH3 0x177 PUSH1 0x20 SHL SWAP1 SWAP2 SWAP1 PUSH1 0x20 SHR JUMP JUMPDEST PUSH2 0x120 DUP2 DUP2 MSTORE POP POP PUSH3 0xB3 PUSH1 0x1 DUP3 PUSH3 0x177 PUSH1 0x20 SHL SWAP1 SWAP2 SWAP1 PUSH1 0x20 SHR JUMP JUMPDEST PUSH2 0x140 DUP2 DUP2 MSTORE POP POP DUP2 DUP1 MLOAD SWAP1 PUSH1 0x20 ADD KECCAK256 PUSH1 0xE0 DUP2 DUP2 MSTORE POP POP DUP1 DUP1 MLOAD SWAP1 PUSH1 0x20 ADD KECCAK256 PUSH2 0x100 DUP2 DUP2 MSTORE POP POP CHAINID PUSH1 0xA0 DUP2 DUP2 MSTORE POP POP PUSH3 0xF2 PUSH3 0x1CC PUSH1 0x20 SHL PUSH1 0x20 SHR JUMP JUMPDEST PUSH1 0x80 DUP2 DUP2 MSTORE POP POP ADDRESS PUSH20 0xFFFFFFFFFFFFFFFFFFFFFFFFFFFFFFFFFFFFFFFF AND PUSH1 0xC0 DUP2 PUSH20 0xFFFFFFFFFFFFFFFFFFFFFFFFFFFFFFFFFFFFFFFF AND DUP2 MSTORE POP POP POP POP POP POP CALLER PUSH1 0x2 PUSH0 PUSH2 0x100 EXP DUP2 SLOAD DUP2 PUSH20 0xFFFFFFFFFFFFFFFFFFFFFFFFFFFFFFFFFFFFFFFF MUL NOT AND SWAP1 DUP4 PUSH20 0xFFFFFFFFFFFFFFFFFFFFFFFFFFFFFFFFFFFFFFFF AND MUL OR SWAP1 SSTORE POP PUSH3 0x7F6 JUMP JUMPDEST PUSH0 PUSH1 0x20 DUP4 MLOAD LT ISZERO PUSH3 0x19C JUMPI PUSH3 0x194 DUP4 PUSH3 0x228 PUSH1 0x20 SHL PUSH1 0x20 SHR JUMP JUMPDEST SWAP1 POP PUSH3 0x1C6 JUMP JUMPDEST DUP3 PUSH3 0x1AE DUP4 PUSH3 0x292 PUSH1 0x20 SHL PUSH1 0x20 SHR JUMP JUMPDEST PUSH0 ADD SWAP1 DUP2 PUSH3 0x1BE SWAP2 SWAP1 PUSH3 0x4FF JUMP JUMPDEST POP PUSH1 0xFF PUSH0 SHL SWAP1 POP JUMPDEST SWAP3 SWAP2 POP POP JUMP JUMPDEST PUSH0 PUSH32 0x8B73C3C69BB8FE3D512ECC4CF759CC79239F7B179B0FFACAA9A75D522B39400F PUSH1 0xE0 MLOAD PUSH2 0x100 MLOAD CHAINID ADDRESS PUSH1 0x40 MLOAD PUSH1 0x20 ADD PUSH3 0x20D SWAP6 SWAP5 SWAP4 SWAP3 SWAP2 SWAP1 PUSH3 0x651 JUMP JUMPDEST PUSH1 0x40 MLOAD PUSH1 0x20 DUP2 DUP4 SUB SUB DUP2 MSTORE SWAP1 PUSH1 0x40 MSTORE DUP1 MLOAD SWAP1 PUSH1 0x20 ADD KECCAK256 SWAP1 POP SWAP1 JUMP JUMPDEST PUSH0 DUP1 DUP3 SWAP1 POP PUSH1 0x1F DUP2 MLOAD GT ISZERO PUSH3 0x277 JUMPI DUP3 PUSH1 0x40 MLOAD PUSH32 0x305A27A900000000000000000000000000000000000000000000000000000000 DUP2 MSTORE PUSH1 0x4 ADD PUSH3 0x26E SWAP2 SWAP1 PUSH3 0x736 JUMP JUMPDEST PUSH1 0x40 MLOAD DUP1 SWAP2 SUB SWAP1 REVERT JUMPDEST DUP1 MLOAD DUP2 PUSH3 0x285 SWAP1 PUSH3 0x787 JUMP JUMPDEST PUSH0 SHR OR PUSH0 SHL SWAP2 POP POP SWAP2 SWAP1 POP JUMP JUMPDEST PUSH0 DUP2 SWAP1 POP SWAP2 SWAP1 POP JUMP JUMPDEST PUSH0 DUP2 MLOAD SWAP1 POP SWAP2 SWAP1 POP JUMP JUMPDEST PUSH32 0x4E487B7100000000000000000000000000000000000000000000000000000000 PUSH0 MSTORE PUSH1 0x41 PUSH1 0x4 MSTORE PUSH1 0x24 PUSH0 REVERT JUMPDEST PUSH32 0x4E487B7100000000000000000000000000000000000000000000000000000000 PUSH0 MSTORE PUSH1 0x22 PUSH1 0x4 MSTORE PUSH1 0x24 PUSH0 REVERT JUMPDEST PUSH0 PUSH1 0x2 DUP3 DIV SWAP1 POP PUSH1 0x1 DUP3 AND DUP1 PUSH3 0x317 JUMPI PUSH1 0x7F DUP3 AND SWAP2 POP JUMPDEST PUSH1 0x20 DUP3 LT DUP2 SUB PUSH3 0x32D JUMPI PUSH3 0x32C PUSH3 0x2D2 JUMP JUMPDEST JUMPDEST POP SWAP2 SWAP1 POP JUMP JUMPDEST PUSH0 DUP2 SWAP1 POP DUP2 PUSH0 MSTORE PUSH1 0x20 PUSH0 KECCAK256 SWAP1 POP SWAP2 SWAP1 POP JUMP JUMPDEST PUSH0 PUSH1 0x20 PUSH1 0x1F DUP4 ADD DIV SWAP1 POP SWAP2 SWAP1 POP JUMP JUMPDEST PUSH0 DUP3 DUP3 SHL SWAP1 POP SWAP3 SWAP2 POP POP JUMP JUMPDEST PUSH0 PUSH1 0x8 DUP4 MUL PUSH3 0x391 PUSH32 0xFFFFFFFFFFFFFFFFFFFFFFFFFFFFFFFFFFFFFFFFFFFFFFFFFFFFFFFFFFFFFFFF DUP3 PUSH3 0x354 JUMP JUMPDEST PUSH3 0x39D DUP7 DUP4 PUSH3 0x354 JUMP JUMPDEST SWAP6 POP DUP1 NOT DUP5 AND SWAP4 POP DUP1 DUP7 AND DUP5 OR SWAP3 POP POP POP SWAP4 SWAP3 POP POP POP JUMP JUMPDEST PUSH0 DUP2 SWAP1 POP SWAP2 SWAP1 POP JUMP JUMPDEST PUSH0 DUP2 SWAP1 POP SWAP2 SWAP1 POP JUMP JUMPDEST PUSH0 PUSH3 0x3E7 PUSH3 0x3E1 PUSH3 0x3DB DUP5 PUSH3 0x3B5 JUMP JUMPDEST PUSH3 0x3BE JUMP JUMPDEST PUSH3 0x3B5 JUMP JUMPDEST SWAP1 POP SWAP2 SWAP1 POP JUMP JUMPDEST PUSH0 DUP2 SWAP1 POP SWAP2 SWAP1 POP JUMP JUMPDEST PUSH3 0x402 DUP4 PUSH3 0x3C7 JUMP JUMPDEST PUSH3 0x41A PUSH3 0x411 DUP3 PUSH3 0x3EE JUMP JUMPDEST DUP5 DUP5 SLOAD PUSH3 0x360 JUMP JUMPDEST DUP3 SSTORE POP POP POP POP JUMP JUMPDEST PUSH0 SWAP1 JUMP JUMPDEST PUSH3 0x430 PUSH3 0x422 JUMP JUMPDEST PUSH3 0x43D DUP2 DUP5 DUP5 PUSH3 0x3F7 JUMP JUMPDEST POP POP POP JUMP JUMPDEST JUMPDEST DUP2 DUP2 LT ISZERO PUSH3 0x464 JUMPI PUSH3 0x458 PUSH0 DUP3 PUSH3 0x426 JUMP JUMPDEST PUSH1 0x1 DUP2 ADD SWAP1 POP PUSH3 0x443 JUMP JUMPDEST POP POP JUMP JUMPDEST PUSH1 0x1F DUP3 GT ISZERO PUSH3 0x4B3 JUMPI PUSH3 0x47D DUP2 PUSH3 0x333 JUMP JUMPDEST PUSH3 0x488 DUP5 PUSH3 0x345 JUMP JUMPDEST DUP2 ADD PUSH1 0x20 DUP6 LT ISZERO PUSH3 0x498 JUMPI DUP2 SWAP1 POP JUMPDEST PUSH3 0x4B0 PUSH3 0x4A7 DUP6 PUSH3 0x345 JUMP JUMPDEST DUP4 ADD DUP3 PUSH3 0x442 JUMP JUMPDEST POP POP JUMPDEST POP POP POP JUMP JUMPDEST PUSH0 DUP3 DUP3 SHR SWAP1 POP SWAP3 SWAP2 POP POP JUMP JUMPDEST PUSH0 PUSH3 0x4D5 PUSH0 NOT DUP5 PUSH1 0x8 MUL PUSH3 0x4B8 JUMP JUMPDEST NOT DUP1 DUP4 AND SWAP2 POP POP SWAP3 SWAP2 POP POP JUMP JUMPDEST PUSH0 PUSH3 0x4EF DUP4 DUP4 PUSH3 0x4C4 JUMP JUMPDEST SWAP2 POP DUP3 PUSH1 0x2 MUL DUP3 OR SWAP1 POP SWAP3 SWAP2 POP POP JUMP JUMPDEST PUSH3 0x50A DUP3 PUSH3 0x29B JUMP JUMPDEST PUSH8 0xFFFFFFFFFFFFFFFF DUP2 GT ISZERO PUSH3 0x526 JUMPI PUSH3 0x525 PUSH3 0x2A5 JUMP JUMPDEST JUMPDEST PUSH3 0x532 DUP3 SLOAD PUSH3 0x2FF JUMP JUMPDEST PUSH3 0x53F DUP3 DUP3 DUP6 PUSH3 0x468 JUMP JUMPDEST PUSH0 PUSH1 0x20 SWAP1 POP PUSH1 0x1F DUP4 GT PUSH1 0x1 DUP2 EQ PUSH3 0x575 JUMPI PUSH0 DUP5 ISZERO PUSH3 0x560 JUMPI DUP3 DUP8 ADD MLOAD SWAP1 POP JUMPDEST PUSH3 0x56C DUP6 DUP3 PUSH3 0x4E2 JUMP JUMPDEST DUP7 SSTORE POP PUSH3 0x5DB JUMP JUMPDEST PUSH1 0x1F NOT DUP5 AND PUSH3 0x585 DUP7 PUSH3 0x333 JUMP JUMPDEST PUSH0 JUMPDEST DUP3 DUP2 LT ISZERO PUSH3 0x5AE JUMPI DUP5 DUP10 ADD MLOAD DUP3 SSTORE PUSH1 0x1 DUP3 ADD SWAP2 POP PUSH1 0x20 DUP6 ADD SWAP5 POP PUSH1 0x20 DUP2 ADD SWAP1 POP PUSH3 0x587 JUMP JUMPDEST DUP7 DUP4 LT ISZERO PUSH3 0x5CE JUMPI DUP5 DUP10 ADD MLOAD PUSH3 0x5CA PUSH1 0x1F DUP10 AND DUP3 PUSH3 0x4C4 JUMP JUMPDEST DUP4 SSTORE POP JUMPDEST PUSH1 0x1 PUSH1 0x2 DUP9 MUL ADD DUP9 SSTORE POP POP POP JUMPDEST POP POP POP POP POP POP JUMP JUMPDEST PUSH0 DUP2 SWAP1 POP SWAP2 SWAP1 POP JUMP JUMPDEST PUSH3 0x5F7 DUP2 PUSH3 0x5E3 JUMP JUMPDEST DUP3 MSTORE POP POP JUMP JUMPDEST PUSH3 0x608 DUP2 PUSH3 0x3B5 JUMP JUMPDEST DUP3 MSTORE POP POP JUMP JUMPDEST PUSH0 PUSH20 0xFFFFFFFFFFFFFFFFFFFFFFFFFFFFFFFFFFFFFFFF DUP3 AND SWAP1 POP SWAP2 SWAP1 POP JUMP JUMPDEST PUSH0 PUSH3 0x639 DUP3 PUSH3 0x60E JUMP JUMPDEST SWAP1 POP SWAP2 SWAP1 POP JUMP JUMPDEST PUSH3 0x64B DUP2 PUSH3 0x62D JUMP JUMPDEST DUP3 MSTORE POP POP JUMP JUMPDEST PUSH0 PUSH1 0xA0 DUP3 ADD SWAP1 POP PUSH3 0x666 PUSH0 DUP4 ADD DUP9 PUSH3 0x5EC JUMP JUMPDEST PUSH3 0x675 PUSH1 0x20 DUP4 ADD DUP8 PUSH3 0x5EC JUMP JUMPDEST PUSH3 0x684 PUSH1 0x40 DUP4 ADD DUP7 PUSH3 0x5EC JUMP JUMPDEST PUSH3 0x693 PUSH1 0x60 DUP4 ADD DUP6 PUSH3 0x5FD JUMP JUMPDEST PUSH3 0x6A2 PUSH1 0x80 DUP4 ADD DUP5 PUSH3 0x640 JUMP JUMPDEST SWAP7 SWAP6 POP POP POP POP POP POP JUMP JUMPDEST PUSH0 DUP3 DUP3 MSTORE PUSH1 0x20 DUP3 ADD SWAP1 POP SWAP3 SWAP2 POP POP JUMP JUMPDEST PUSH0 JUMPDEST DUP4 DUP2 LT ISZERO PUSH3 0x6DB JUMPI DUP1 DUP3 ADD MLOAD DUP2 DUP5 ADD MSTORE PUSH1 0x20 DUP2 ADD SWAP1 POP PUSH3 0x6BE JUMP JUMPDEST PUSH0 DUP5 DUP5 ADD MSTORE POP POP POP POP JUMP JUMPDEST PUSH0 PUSH1 0x1F NOT PUSH1 0x1F DUP4 ADD AND SWAP1 POP SWAP2 SWAP1 POP JUMP JUMPDEST PUSH0 PUSH3 0x702 DUP3 PUSH3 0x29B JUMP JUMPDEST PUSH3 0x70E DUP2 DUP6 PUSH3 0x6AC JUMP JUMPDEST SWAP4 POP PUSH3 0x720 DUP2 DUP6 PUSH1 0x20 DUP7 ADD PUSH3 0x6BC JUMP JUMPDEST PUSH3 0x72B DUP2 PUSH3 0x6E6 JUMP JUMPDEST DUP5 ADD SWAP2 POP POP SWAP3 SWAP2 POP POP JUMP JUMPDEST PUSH0 PUSH1 0x20 DUP3 ADD SWAP1 POP DUP2 DUP2 SUB PUSH0 DUP4 ADD MSTORE PUSH3 0x750 DUP2 DUP5 PUSH3 0x6F6 JUMP JUMPDEST SWAP1 POP SWAP3 SWAP2 POP POP JUMP JUMPDEST PUSH0 DUP2 MLOAD SWAP1 POP SWAP2 SWAP1 POP JUMP JUMPDEST PUSH0 DUP2 SWAP1 POP PUSH1 0x20 DUP3 ADD SWAP1 POP SWAP2 SWAP1 POP JUMP JUMPDEST PUSH0 PUSH3 0x77E DUP3 MLOAD PUSH3 0x5E3 JUMP JUMPDEST DUP1 SWAP2 POP POP SWAP2 SWAP1 POP JUMP JUMPDEST PUSH0 PUSH3 0x793 DUP3 PUSH3 0x758 JUMP JUMPDEST DUP3 PUSH3 0x79F DUP5 PUSH3 0x762 JUMP JUMPDEST SWAP1 POP PUSH3 0x7AC DUP2 PUSH3 0x771 JUMP JUMPDEST SWAP3 POP PUSH1 0x20 DUP3 LT ISZERO PUSH3 0x7EF JUMPI PUSH3 0x7EA PUSH32 0xFFFFFFFFFFFFFFFFFFFFFFFFFFFFFFFFFFFFFFFFFFFFFFFFFFFFFFFFFFFFFFFF DUP4 PUSH1 0x20 SUB PUSH1 0x8 MUL PUSH3 0x354 JUMP JUMPDEST DUP4 AND SWAP3 POP JUMPDEST POP POP SWAP2 SWAP1 POP JUMP JUMPDEST PUSH1 0x80 MLOAD PUSH1 0xA0 MLOAD PUSH1 0xC0 MLOAD PUSH1 0xE0 MLOAD PUSH2 0x100 MLOAD PUSH2 0x120 MLOAD PUSH2 0x140 MLOAD PUSH2 0x147B PUSH3 0x839 PUSH0 CODECOPY PUSH0 PUSH2 0x889 ADD MSTORE PUSH0 PUSH2 0x84E ADD MSTORE PUSH0 POP POP PUSH0 POP POP PUSH0 POP POP PUSH0 POP POP PUSH0 POP POP PUSH2 0x147B PUSH0 RETURN INVALID PUSH1 0x80 PUSH1 0x40 MSTORE CALLVALUE DUP1 ISZERO PUSH2 0xF JUMPI PUSH0 DUP1 REVERT JUMPDEST POP PUSH1 0x4 CALLDATASIZE LT PUSH2 0xA7 JUMPI PUSH0 CALLDATALOAD PUSH1 0xE0 SHR DUP1 PUSH4 0x913B722C GT PUSH2 0x6F JUMPI DUP1 PUSH4 0x913B722C EQ PUSH2 0x16B JUMPI DUP1 PUSH4 0xE2985812 EQ PUSH2 0x189 JUMPI DUP1 PUSH4 0xEFEB5E58 EQ PUSH2 0x1A5 JUMPI DUP1 PUSH4 0xF732A537 EQ PUSH2 0x1D5 JUMPI DUP1 PUSH4 0xF8858386 EQ PUSH2 0x1DF JUMPI DUP1 PUSH4 0xFF2135F7 EQ PUSH2 0x20F JUMPI PUSH2 0xA7 JUMP JUMPDEST DUP1 PUSH4 0x9EB0A95 EQ PUSH2 0xAB JUMPI DUP1 PUSH4 0x204FC0CD EQ PUSH2 0xDB JUMPI DUP1 PUSH4 0x84B0196E EQ PUSH2 0x10B JUMPI DUP1 PUSH4 0x8DA5CB5B EQ PUSH2 0x12F JUMPI DUP1 PUSH4 0x90F25EB3 EQ PUSH2 0x14D JUMPI JUMPDEST PUSH0 DUP1 REVERT JUMPDEST PUSH2 0xC5 PUSH1 0x4 DUP1 CALLDATASIZE SUB DUP2 ADD SWAP1 PUSH2 0xC0 SWAP2 SWAP1 PUSH2 0xBB3 JUMP JUMPDEST PUSH2 0x219 JUMP JUMPDEST PUSH1 0x40 MLOAD PUSH2 0xD2 SWAP2 SWAP1 PUSH2 0xC17 JUMP JUMPDEST PUSH1 0x40 MLOAD DUP1 SWAP2 SUB SWAP1 RETURN JUMPDEST PUSH2 0xF5 PUSH1 0x4 DUP1 CALLDATASIZE SUB DUP2 ADD SWAP1 PUSH2 0xF0 SWAP2 SWAP1 PUSH2 0xBB3 JUMP JUMPDEST PUSH2 0x239 JUMP JUMPDEST PUSH1 0x40 MLOAD PUSH2 0x102 SWAP2 SWAP1 PUSH2 0xC17 JUMP JUMPDEST PUSH1 0x40 MLOAD DUP1 SWAP2 SUB SWAP1 RETURN JUMPDEST PUSH2 0x113 PUSH2 0x259 JUMP JUMPDEST PUSH1 0x40 MLOAD PUSH2 0x126 SWAP8 SWAP7 SWAP6 SWAP5 SWAP4 SWAP3 SWAP2 SWAP1 PUSH2 0xE11 JUMP JUMPDEST PUSH1 0x40 MLOAD DUP1 SWAP2 SUB SWAP1 RETURN JUMPDEST PUSH2 0x137 PUSH2 0x2FE JUMP JUMPDEST PUSH1 0x40 MLOAD PUSH2 0x144 SWAP2 SWAP1 PUSH2 0xE93 JUMP JUMPDEST PUSH1 0x40 MLOAD DUP1 SWAP2 SUB SWAP1 RETURN JUMPDEST PUSH2 0x155 PUSH2 0x323 JUMP JUMPDEST PUSH1 0x40 MLOAD PUSH2 0x162 SWAP2 SWAP1 PUSH2 0xF72 JUMP JUMPDEST PUSH1 0x40 MLOAD DUP1 SWAP2 SUB SWAP1 RETURN JUMPDEST PUSH2 0x173 PUSH2 0x3A4 JUMP JUMPDEST PUSH1 0x40 MLOAD PUSH2 0x180 SWAP2 SWAP1 PUSH2 0xF72 JUMP JUMPDEST PUSH1 0x40 MLOAD DUP1 SWAP2 SUB SWAP1 RETURN JUMPDEST PUSH2 0x1A3 PUSH1 0x4 DUP1 CALLDATASIZE SUB DUP2 ADD SWAP1 PUSH2 0x19E SWAP2 SWAP1 PUSH2 0xFF3 JUMP JUMPDEST PUSH2 0x425 JUMP JUMPDEST STOP JUMPDEST PUSH2 0x1BF PUSH1 0x4 DUP1 CALLDATASIZE SUB DUP2 ADD SWAP1 PUSH2 0x1BA SWAP2 SWAP1 PUSH2 0xBB3 JUMP JUMPDEST PUSH2 0x59C JUMP JUMPDEST PUSH1 0x40 MLOAD PUSH2 0x1CC SWAP2 SWAP1 PUSH2 0x1080 JUMP JUMPDEST PUSH1 0x40 MLOAD DUP1 SWAP2 SUB SWAP1 RETURN JUMPDEST PUSH2 0x1DD PUSH2 0x5D3 JUMP JUMPDEST STOP JUMPDEST PUSH2 0x1F9 PUSH1 0x4 DUP1 CALLDATASIZE SUB DUP2 ADD SWAP1 PUSH2 0x1F4 SWAP2 SWAP1 PUSH2 0xBB3 JUMP JUMPDEST PUSH2 0x6F1 JUMP JUMPDEST PUSH1 0x40 MLOAD PUSH2 0x206 SWAP2 SWAP1 PUSH2 0x1080 JUMP JUMPDEST PUSH1 0x40 MLOAD DUP1 SWAP2 SUB SWAP1 RETURN JUMPDEST PUSH2 0x217 PUSH2 0x728 JUMP JUMPDEST STOP JUMPDEST PUSH1 0x3 DUP2 DUP2 SLOAD DUP2 LT PUSH2 0x228 JUMPI PUSH0 DUP1 REVERT JUMPDEST SWAP1 PUSH0 MSTORE PUSH1 0x20 PUSH0 KECCAK256 ADD PUSH0 SWAP2 POP SWAP1 POP SLOAD DUP2 JUMP JUMPDEST PUSH1 0x4 DUP2 DUP2 SLOAD DUP2 LT PUSH2 0x248 JUMPI PUSH0 DUP1 REVERT JUMPDEST SWAP1 PUSH0 MSTORE PUSH1 0x20 PUSH0 KECCAK256 ADD PUSH0 SWAP2 POP SWAP1 POP SLOAD DUP2 JUMP JUMPDEST PUSH0 PUSH1 0x60 DUP1 PUSH0 DUP1 PUSH0 PUSH1 0x60 PUSH2 0x26A PUSH2 0x846 JUMP JUMPDEST PUSH2 0x272 PUSH2 0x880 JUMP JUMPDEST CHAINID ADDRESS PUSH0 DUP1 SHL PUSH0 PUSH8 0xFFFFFFFFFFFFFFFF DUP2 GT ISZERO PUSH2 0x291 JUMPI PUSH2 0x290 PUSH2 0x1099 JUMP JUMPDEST JUMPDEST PUSH1 0x40 MLOAD SWAP1 DUP1 DUP3 MSTORE DUP1 PUSH1 0x20 MUL PUSH1 0x20 ADD DUP3 ADD PUSH1 0x40 MSTORE DUP1 ISZERO PUSH2 0x2BF JUMPI DUP2 PUSH1 0x20 ADD PUSH1 0x20 DUP3 MUL DUP1 CALLDATASIZE DUP4 CALLDATACOPY DUP1 DUP3 ADD SWAP2 POP POP SWAP1 POP JUMPDEST POP PUSH32 0xF00000000000000000000000000000000000000000000000000000000000000 SWAP6 SWAP5 SWAP4 SWAP3 SWAP2 SWAP1 SWAP7 POP SWAP7 POP SWAP7 POP SWAP7 POP SWAP7 POP SWAP7 POP SWAP7 POP SWAP1 SWAP2 SWAP3 SWAP4 SWAP5 SWAP6 SWAP7 JUMP JUMPDEST PUSH1 0x2 PUSH0 SWAP1 SLOAD SWAP1 PUSH2 0x100 EXP SWAP1 DIV PUSH20 0xFFFFFFFFFFFFFFFFFFFFFFFFFFFFFFFFFFFFFFFF AND DUP2 JUMP JUMPDEST PUSH1 0x60 PUSH1 0x6 DUP1 SLOAD DUP1 PUSH1 0x20 MUL PUSH1 0x20 ADD PUSH1 0x40 MLOAD SWAP1 DUP2 ADD PUSH1 0x40 MSTORE DUP1 SWAP3 SWAP2 SWAP1 DUP2 DUP2 MSTORE PUSH1 0x20 ADD DUP3 DUP1 SLOAD DUP1 ISZERO PUSH2 0x39A JUMPI PUSH1 0x20 MUL DUP3 ADD SWAP2 SWAP1 PUSH0 MSTORE PUSH1 0x20 PUSH0 KECCAK256 SWAP1 PUSH0 SWAP1 JUMPDEST DUP3 DUP3 SWAP1 SLOAD SWAP1 PUSH2 0x100 EXP SWAP1 DIV PUSH4 0xFFFFFFFF AND PUSH4 0xFFFFFFFF AND DUP2 MSTORE PUSH1 0x20 ADD SWAP1 PUSH1 0x4 ADD SWAP1 PUSH1 0x20 DUP3 PUSH1 0x3 ADD DIV SWAP3 DUP4 ADD SWAP3 PUSH1 0x1 SUB DUP3 MUL SWAP2 POP DUP1 DUP5 GT PUSH2 0x35D JUMPI SWAP1 POP JUMPDEST POP POP POP POP POP SWAP1 POP SWAP1 JUMP JUMPDEST PUSH1 0x60 PUSH1 0x5 DUP1 SLOAD DUP1 PUSH1 0x20 MUL PUSH1 0x20 ADD PUSH1 0x40 MLOAD SWAP1 DUP2 ADD PUSH1 0x40 MSTORE DUP1 SWAP3 SWAP2 SWAP1 DUP2 DUP2 MSTORE PUSH1 0x20 ADD DUP3 DUP1 SLOAD DUP1 ISZERO PUSH2 0x41B JUMPI PUSH1 0x20 MUL DUP3 ADD SWAP2 SWAP1 PUSH0 MSTORE PUSH1 0x20 PUSH0 KECCAK256 SWAP1 PUSH0 SWAP1 JUMPDEST DUP3 DUP3 SWAP1 SLOAD SWAP1 PUSH2 0x100 EXP SWAP1 DIV PUSH4 0xFFFFFFFF AND PUSH4 0xFFFFFFFF AND DUP2 MSTORE PUSH1 0x20 ADD SWAP1 PUSH1 0x4 ADD SWAP1 PUSH1 0x20 DUP3 PUSH1 0x3 ADD DIV SWAP3 DUP4 ADD SWAP3 PUSH1 0x1 SUB DUP3 MUL SWAP2 POP DUP1 DUP5 GT PUSH2 0x3DE JUMPI SWAP1 POP JUMPDEST POP POP POP POP POP SWAP1 POP SWAP1 JUMP JUMPDEST PUSH1 0x2 PUSH0 SWAP1 SLOAD SWAP1 PUSH2 0x100 EXP SWAP1 DIV PUSH20 0xFFFFFFFFFFFFFFFFFFFFFFFFFFFFFFFFFFFFFFFF AND PUSH20 0xFFFFFFFFFFFFFFFFFFFFFFFFFFFFFFFFFFFFFFFF AND CALLER PUSH20 0xFFFFFFFFFFFFFFFFFFFFFFFFFFFFFFFFFFFFFFFF AND EQ PUSH2 0x4B4 JUMPI PUSH1 0x40 MLOAD PUSH32 0x8C379A000000000000000000000000000000000000000000000000000000000 DUP2 MSTORE PUSH1 0x4 ADD PUSH2 0x4AB SWAP1 PUSH2 0x1136 JUMP JUMPDEST PUSH1 0x40 MLOAD DUP1 SWAP2 SUB SWAP1 REVERT JUMPDEST PUSH1 0x3 PUSH2 0x502 DUP6 DUP6 DUP1 DUP1 PUSH1 0x1F ADD PUSH1 0x20 DUP1 SWAP2 DIV MUL PUSH1 0x20 ADD PUSH1 0x40 MLOAD SWAP1 DUP2 ADD PUSH1 0x40 MSTORE DUP1 SWAP4 SWAP3 SWAP2 SWAP1 DUP2 DUP2 MSTORE PUSH1 0x20 ADD DUP4 DUP4 DUP1 DUP3 DUP5 CALLDATACOPY PUSH0 DUP2 DUP5 ADD MSTORE PUSH1 0x1F NOT PUSH1 0x1F DUP3 ADD AND SWAP1 POP DUP1 DUP4 ADD SWAP3 POP POP POP POP POP POP POP PUSH2 0x8BB JUMP JUMPDEST SWAP1 DUP1 PUSH1 0x1 DUP2 SLOAD ADD DUP1 DUP3 SSTORE DUP1 SWAP2 POP POP PUSH1 0x1 SWAP1 SUB SWAP1 PUSH0 MSTORE PUSH1 0x20 PUSH0 KECCAK256 ADD PUSH0 SWAP1 SWAP2 SWAP1 SWAP2 SWAP1 SWAP2 POP SSTORE PUSH1 0x4 PUSH2 0x573 DUP4 DUP4 DUP1 DUP1 PUSH1 0x1F ADD PUSH1 0x20 DUP1 SWAP2 DIV MUL PUSH1 0x20 ADD PUSH1 0x40 MLOAD SWAP1 DUP2 ADD PUSH1 0x40 MSTORE DUP1 SWAP4 SWAP3 SWAP2 SWAP1 DUP2 DUP2 MSTORE PUSH1 0x20 ADD DUP4 DUP4 DUP1 DUP3 DUP5 CALLDATACOPY PUSH0 DUP2 DUP5 ADD MSTORE PUSH1 0x1F NOT PUSH1 0x1F DUP3 ADD AND SWAP1 POP DUP1 DUP4 ADD SWAP3 POP POP POP POP POP POP POP PUSH2 0x8BB JUMP JUMPDEST SWAP1 DUP1 PUSH1 0x1 DUP2 SLOAD ADD DUP1 DUP3 SSTORE DUP1 SWAP2 POP POP PUSH1 0x1 SWAP1 SUB SWAP1 PUSH0 MSTORE PUSH1 0x20 PUSH0 KECCAK256 ADD PUSH0 SWAP1 SWAP2 SWAP1 SWAP2 SWAP1 SWAP2 POP SSTORE POP POP POP POP JUMP JUMPDEST PUSH1 0x5 DUP2 DUP2 SLOAD DUP2 LT PUSH2 0x5AB JUMPI PUSH0 DUP1 REVERT JUMPDEST SWAP1 PUSH0 MSTORE PUSH1 0x20 PUSH0 KECCAK256 SWAP1 PUSH1 0x8 SWAP2 DUP3 DUP3 DIV ADD SWAP2 SWAP1 MOD PUSH1 0x4 MUL SWAP2 POP SLOAD SWAP1 PUSH2 0x100 EXP SWAP1 DIV PUSH4 0xFFFFFFFF AND DUP2 JUMP JUMPDEST PUSH1 0x2 PUSH0 SWAP1 SLOAD SWAP1 PUSH2 0x100 EXP SWAP1 DIV PUSH20 0xFFFFFFFFFFFFFFFFFFFFFFFFFFFFFFFFFFFFFFFF AND PUSH20 0xFFFFFFFFFFFFFFFFFFFFFFFFFFFFFFFFFFFFFFFF AND CALLER PUSH20 0xFFFFFFFFFFFFFFFFFFFFFFFFFFFFFFFFFFFFFFFF AND EQ PUSH2 0x662 JUMPI PUSH1 0x40 MLOAD PUSH32 0x8C379A000000000000000000000000000000000000000000000000000000000 DUP2 MSTORE PUSH1 0x4 ADD PUSH2 0x659 SWAP1 PUSH2 0x11C4 JUMP JUMPDEST PUSH1 0x40 MLOAD DUP1 SWAP2 SUB SWAP1 REVERT JUMPDEST PUSH0 JUMPDEST PUSH1 0x3 DUP1 SLOAD SWAP1 POP DUP2 LT ISZERO PUSH2 0x6EE JUMPI PUSH1 0x5 PUSH2 0x698 PUSH1 0x3 DUP4 DUP2 SLOAD DUP2 LT PUSH2 0x68A JUMPI PUSH2 0x689 PUSH2 0x11E2 JUMP JUMPDEST JUMPDEST SWAP1 PUSH0 MSTORE PUSH1 0x20 PUSH0 KECCAK256 ADD SLOAD PUSH2 0x8CE JUMP JUMPDEST SWAP1 DUP1 PUSH1 0x1 DUP2 SLOAD ADD DUP1 DUP3 SSTORE DUP1 SWAP2 POP POP PUSH1 0x1 SWAP1 SUB SWAP1 PUSH0 MSTORE PUSH1 0x20 PUSH0 KECCAK256 SWAP1 PUSH1 0x8 SWAP2 DUP3 DUP3 DIV ADD SWAP2 SWAP1 MOD PUSH1 0x4 MUL SWAP1 SWAP2 SWAP1 SWAP2 SWAP1 SWAP2 PUSH2 0x100 EXP DUP2 SLOAD DUP2 PUSH4 0xFFFFFFFF MUL NOT AND SWAP1 DUP4 PUSH4 0xFFFFFFFF AND MUL OR SWAP1 SSTORE POP DUP1 DUP1 PUSH1 0x1 ADD SWAP2 POP POP PUSH2 0x664 JUMP JUMPDEST POP JUMP JUMPDEST PUSH1 0x6 DUP2 DUP2 SLOAD DUP2 LT PUSH2 0x700 JUMPI PUSH0 DUP1 REVERT JUMPDEST SWAP1 PUSH0 MSTORE PUSH1 0x20 PUSH0 KECCAK256 SWAP1 PUSH1 0x8 SWAP2 DUP3 DUP3 DIV ADD SWAP2 SWAP1 MOD PUSH1 0x4 MUL SWAP2 POP SLOAD SWAP1 PUSH2 0x100 EXP SWAP1 DIV PUSH4 0xFFFFFFFF AND DUP2 JUMP JUMPDEST PUSH1 0x2 PUSH0 SWAP1 SLOAD SWAP1 PUSH2 0x100 EXP SWAP1 DIV PUSH20 0xFFFFFFFFFFFFFFFFFFFFFFFFFFFFFFFFFFFFFFFF AND PUSH20 0xFFFFFFFFFFFFFFFFFFFFFFFFFFFFFFFFFFFFFFFF AND CALLER PUSH20 0xFFFFFFFFFFFFFFFFFFFFFFFFFFFFFFFFFFFFFFFF AND EQ PUSH2 0x7B7 JUMPI PUSH1 0x40 MLOAD PUSH32 0x8C379A000000000000000000000000000000000000000000000000000000000 DUP2 MSTORE PUSH1 0x4 ADD PUSH2 0x7AE SWAP1 PUSH2 0x127F JUMP JUMPDEST PUSH1 0x40 MLOAD DUP1 SWAP2 SUB SWAP1 REVERT JUMPDEST PUSH0 JUMPDEST PUSH1 0x4 DUP1 SLOAD SWAP1 POP DUP2 LT ISZERO PUSH2 0x843 JUMPI PUSH1 0x6 PUSH2 0x7ED PUSH1 0x4 DUP4 DUP2 SLOAD DUP2 LT PUSH2 0x7DF JUMPI PUSH2 0x7DE PUSH2 0x11E2 JUMP JUMPDEST JUMPDEST SWAP1 PUSH0 MSTORE PUSH1 0x20 PUSH0 KECCAK256 ADD SLOAD PUSH2 0x8CE JUMP JUMPDEST SWAP1 DUP1 PUSH1 0x1 DUP2 SLOAD ADD DUP1 DUP3 SSTORE DUP1 SWAP2 POP POP PUSH1 0x1 SWAP1 SUB SWAP1 PUSH0 MSTORE PUSH1 0x20 PUSH0 KECCAK256 SWAP1 PUSH1 0x8 SWAP2 DUP3 DUP3 DIV ADD SWAP2 SWAP1 MOD PUSH1 0x4 MUL SWAP1 SWAP2 SWAP1 SWAP2 SWAP1 SWAP2 PUSH2 0x100 EXP DUP2 SLOAD DUP2 PUSH4 0xFFFFFFFF MUL NOT AND SWAP1 DUP4 PUSH4 0xFFFFFFFF AND MUL OR SWAP1 SSTORE POP DUP1 DUP1 PUSH1 0x1 ADD SWAP2 POP POP PUSH2 0x7B9 JUMP JUMPDEST POP JUMP JUMPDEST PUSH1 0x60 PUSH2 0x87B PUSH0 PUSH32 0x0 PUSH2 0x8DF SWAP1 SWAP2 SWAP1 PUSH4 0xFFFFFFFF AND JUMP JUMPDEST SWAP1 POP SWAP1 JUMP JUMPDEST PUSH1 0x60 PUSH2 0x8B6 PUSH1 0x1 PUSH32 0x0 PUSH2 0x8DF SWAP1 SWAP2 SWAP1 PUSH4 0xFFFFFFFF AND JUMP JUMPDEST SWAP1 POP SWAP1 JUMP JUMPDEST PUSH0 PUSH2 0x8C7 DUP3 PUSH1 0x2 PUSH2 0x98C JUMP JUMPDEST SWAP1 POP SWAP2 SWAP1 POP JUMP JUMPDEST PUSH0 PUSH2 0x8D8 DUP3 PUSH2 0xA37 JUMP JUMPDEST SWAP1 POP SWAP2 SWAP1 POP JUMP JUMPDEST PUSH1 0x60 PUSH1 0xFF PUSH0 SHL DUP4 EQ PUSH2 0x8FB JUMPI PUSH2 0x8F4 DUP4 PUSH2 0xAB8 JUMP JUMPDEST SWAP1 POP PUSH2 0x986 JUMP JUMPDEST DUP2 DUP1 SLOAD PUSH2 0x907 SWAP1 PUSH2 0x12CA JUMP JUMPDEST DUP1 PUSH1 0x1F ADD PUSH1 0x20 DUP1 SWAP2 DIV MUL PUSH1 0x20 ADD PUSH1 0x40 MLOAD SWAP1 DUP2 ADD PUSH1 0x40 MSTORE DUP1 SWAP3 SWAP2 SWAP1 DUP2 DUP2 MSTORE PUSH1 0x20 ADD DUP3 DUP1 SLOAD PUSH2 0x933 SWAP1 PUSH2 0x12CA JUMP JUMPDEST DUP1 ISZERO PUSH2 0x97E JUMPI DUP1 PUSH1 0x1F LT PUSH2 0x955 JUMPI PUSH2 0x100 DUP1 DUP4 SLOAD DIV MUL DUP4 MSTORE SWAP2 PUSH1 0x20 ADD SWAP2 PUSH2 0x97E JUMP JUMPDEST DUP3 ADD SWAP2 SWAP1 PUSH0 MSTORE PUSH1 0x20 PUSH0 KECCAK256 SWAP1 JUMPDEST DUP2 SLOAD DUP2 MSTORE SWAP1 PUSH1 0x1 ADD SWAP1 PUSH1 0x20 ADD DUP1 DUP4 GT PUSH2 0x961 JUMPI DUP3 SWAP1 SUB PUSH1 0x1F AND DUP3 ADD SWAP2 JUMPDEST POP POP POP POP POP SWAP1 POP JUMPDEST SWAP3 SWAP2 POP POP JUMP JUMPDEST PUSH0 DUP1 DUP4 DUP4 PUSH1 0xF8 SHL PUSH1 0x40 MLOAD PUSH1 0x20 ADD PUSH2 0x9A4 SWAP3 SWAP2 SWAP1 PUSH2 0x135E JUMP JUMPDEST PUSH1 0x40 MLOAD PUSH1 0x20 DUP2 DUP4 SUB SUB DUP2 MSTORE SWAP1 PUSH1 0x40 MSTORE SWAP1 POP PUSH1 0x5D PUSH20 0xFFFFFFFFFFFFFFFFFFFFFFFFFFFFFFFFFFFFFFFF AND PUSH4 0x4B252EC8 DUP3 PUSH1 0x40 MLOAD DUP3 PUSH4 0xFFFFFFFF AND PUSH1 0xE0 SHL DUP2 MSTORE PUSH1 0x4 ADD PUSH2 0x9EF SWAP2 SWAP1 PUSH2 0x13CD JUMP JUMPDEST PUSH1 0x20 PUSH1 0x40 MLOAD DUP1 DUP4 SUB DUP2 DUP7 GAS STATICCALL ISZERO DUP1 ISZERO PUSH2 0xA0A JUMPI RETURNDATASIZE PUSH0 DUP1 RETURNDATACOPY RETURNDATASIZE PUSH0 REVERT JUMPDEST POP POP POP POP PUSH1 0x40 MLOAD RETURNDATASIZE PUSH1 0x1F NOT PUSH1 0x1F DUP3 ADD AND DUP3 ADD DUP1 PUSH1 0x40 MSTORE POP DUP2 ADD SWAP1 PUSH2 0xA2E SWAP2 SWAP1 PUSH2 0x1401 JUMP JUMPDEST SWAP2 POP POP SWAP3 SWAP2 POP POP JUMP JUMPDEST PUSH0 PUSH1 0x5D PUSH20 0xFFFFFFFFFFFFFFFFFFFFFFFFFFFFFFFFFFFFFFFF AND PUSH4 0x5A4EE440 DUP4 PUSH1 0x40 MLOAD DUP3 PUSH4 0xFFFFFFFF AND PUSH1 0xE0 SHL DUP2 MSTORE PUSH1 0x4 ADD PUSH2 0xA72 SWAP2 SWAP1 PUSH2 0x142C JUMP JUMPDEST PUSH1 0x20 PUSH1 0x40 MLOAD DUP1 DUP4 SUB DUP2 DUP7 GAS STATICCALL ISZERO DUP1 ISZERO PUSH2 0xA8D JUMPI RETURNDATASIZE PUSH0 DUP1 RETURNDATACOPY RETURNDATASIZE PUSH0 REVERT JUMPDEST POP POP POP POP PUSH1 0x40 MLOAD RETURNDATASIZE PUSH1 0x1F NOT PUSH1 0x1F DUP3 ADD AND DUP3 ADD DUP1 PUSH1 0x40 MSTORE POP DUP2 ADD SWAP1 PUSH2 0xAB1 SWAP2 SWAP1 PUSH2 0x1401 JUMP JUMPDEST SWAP1 POP SWAP2 SWAP1 POP JUMP JUMPDEST PUSH1 0x60 PUSH0 PUSH2 0xAC4 DUP4 PUSH2 0xB2A JUMP JUMPDEST SWAP1 POP PUSH0 PUSH1 0x20 PUSH8 0xFFFFFFFFFFFFFFFF DUP2 GT ISZERO PUSH2 0xAE2 JUMPI PUSH2 0xAE1 PUSH2 0x1099 JUMP JUMPDEST JUMPDEST PUSH1 0x40 MLOAD SWAP1 DUP1 DUP3 MSTORE DUP1 PUSH1 0x1F ADD PUSH1 0x1F NOT AND PUSH1 0x20 ADD DUP3 ADD PUSH1 0x40 MSTORE DUP1 ISZERO PUSH2 0xB14 JUMPI DUP2 PUSH1 0x20 ADD PUSH1 0x1 DUP3 MUL DUP1 CALLDATASIZE DUP4 CALLDATACOPY DUP1 DUP3 ADD SWAP2 POP POP SWAP1 POP JUMPDEST POP SWAP1 POP DUP2 DUP2 MSTORE DUP4 PUSH1 0x20 DUP3 ADD MSTORE DUP1 SWAP3 POP POP POP SWAP2 SWAP1 POP JUMP JUMPDEST PUSH0 DUP1 PUSH1 0xFF DUP4 PUSH0 SHR AND SWAP1 POP PUSH1 0x1F DUP2 GT ISZERO PUSH2 0xB6F JUMPI PUSH1 0x40 MLOAD PUSH32 0xB3512B0C00000000000000000000000000000000000000000000000000000000 DUP2 MSTORE PUSH1 0x4 ADD PUSH1 0x40 MLOAD DUP1 SWAP2 SUB SWAP1 REVERT JUMPDEST DUP1 SWAP2 POP POP SWAP2 SWAP1 POP JUMP JUMPDEST PUSH0 DUP1 REVERT JUMPDEST PUSH0 DUP1 REVERT JUMPDEST PUSH0 DUP2 SWAP1 POP SWAP2 SWAP1 POP JUMP JUMPDEST PUSH2 0xB92 DUP2 PUSH2 0xB80 JUMP JUMPDEST DUP2 EQ PUSH2 0xB9C JUMPI PUSH0 DUP1 REVERT JUMPDEST POP JUMP JUMPDEST PUSH0 DUP2 CALLDATALOAD SWAP1 POP PUSH2 0xBAD DUP2 PUSH2 0xB89 JUMP JUMPDEST SWAP3 SWAP2 POP POP JUMP JUMPDEST PUSH0 PUSH1 0x20 DUP3 DUP5 SUB SLT ISZERO PUSH2 0xBC8 JUMPI PUSH2 0xBC7 PUSH2 0xB78 JUMP JUMPDEST JUMPDEST PUSH0 PUSH2 0xBD5 DUP5 DUP3 DUP6 ADD PUSH2 0xB9F JUMP JUMPDEST SWAP2 POP POP SWAP3 SWAP2 POP POP JUMP JUMPDEST PUSH0 DUP2 SWAP1 POP SWAP2 SWAP1 POP JUMP JUMPDEST PUSH0 PUSH2 0xC01 PUSH2 0xBFC PUSH2 0xBF7 DUP5 PUSH2 0xB80 JUMP JUMPDEST PUSH2 0xBDE JUMP JUMPDEST PUSH2 0xB80 JUMP JUMPDEST SWAP1 POP SWAP2 SWAP1 POP JUMP JUMPDEST PUSH2 0xC11 DUP2 PUSH2 0xBE7 JUMP JUMPDEST DUP3 MSTORE POP POP JUMP JUMPDEST PUSH0 PUSH1 0x20 DUP3 ADD SWAP1 POP PUSH2 0xC2A PUSH0 DUP4 ADD DUP5 PUSH2 0xC08 JUMP JUMPDEST SWAP3 SWAP2 POP POP JUMP JUMPDEST PUSH0 PUSH32 0xFF00000000000000000000000000000000000000000000000000000000000000 DUP3 AND SWAP1 POP SWAP2 SWAP1 POP JUMP JUMPDEST PUSH2 0xC64 DUP2 PUSH2 0xC30 JUMP JUMPDEST DUP3 MSTORE POP POP JUMP JUMPDEST PUSH0 DUP2 MLOAD SWAP1 POP SWAP2 SWAP1 POP JUMP JUMPDEST PUSH0 DUP3 DUP3 MSTORE PUSH1 0x20 DUP3 ADD SWAP1 POP SWAP3 SWAP2 POP POP JUMP JUMPDEST PUSH0 JUMPDEST DUP4 DUP2 LT ISZERO PUSH2 0xCA1 JUMPI DUP1 DUP3 ADD MLOAD DUP2 DUP5 ADD MSTORE PUSH1 0x20 DUP2 ADD SWAP1 POP PUSH2 0xC86 JUMP JUMPDEST PUSH0 DUP5 DUP5 ADD MSTORE POP POP POP POP JUMP JUMPDEST PUSH0 PUSH1 0x1F NOT PUSH1 0x1F DUP4 ADD AND SWAP1 POP SWAP2 SWAP1 POP JUMP JUMPDEST PUSH0 PUSH2 0xCC6 DUP3 PUSH2 0xC6A JUMP JUMPDEST PUSH2 0xCD0 DUP2 DUP6 PUSH2 0xC74 JUMP JUMPDEST SWAP4 POP PUSH2 0xCE0 DUP2 DUP6 PUSH1 0x20 DUP7 ADD PUSH2 0xC84 JUMP JUMPDEST PUSH2 0xCE9 DUP2 PUSH2 0xCAC JUMP JUMPDEST DUP5 ADD SWAP2 POP POP SWAP3 SWAP2 POP POP JUMP JUMPDEST PUSH2 0xCFD DUP2 PUSH2 0xB80 JUMP JUMPDEST DUP3 MSTORE POP POP JUMP JUMPDEST PUSH0 PUSH20 0xFFFFFFFFFFFFFFFFFFFFFFFFFFFFFFFFFFFFFFFF DUP3 AND SWAP1 POP SWAP2 SWAP1 POP JUMP JUMPDEST PUSH0 PUSH2 0xD2C DUP3 PUSH2 0xD03 JUMP JUMPDEST SWAP1 POP SWAP2 SWAP1 POP JUMP JUMPDEST PUSH2 0xD3C DUP2 PUSH2 0xD22 JUMP JUMPDEST DUP3 MSTORE POP POP JUMP JUMPDEST PUSH0 DUP2 SWAP1 POP SWAP2 SWAP1 POP JUMP JUMPDEST PUSH2 0xD54 DUP2 PUSH2 0xD42 JUMP JUMPDEST DUP3 MSTORE POP POP JUMP JUMPDEST PUSH0 DUP2 MLOAD SWAP1 POP SWAP2 SWAP1 POP JUMP JUMPDEST PUSH0 DUP3 DUP3 MSTORE PUSH1 0x20 DUP3 ADD SWAP1 POP SWAP3 SWAP2 POP POP JUMP JUMPDEST PUSH0 DUP2 SWAP1 POP PUSH1 0x20 DUP3 ADD SWAP1 POP SWAP2 SWAP1 POP JUMP JUMPDEST PUSH2 0xD8C DUP2 PUSH2 0xB80 JUMP JUMPDEST DUP3 MSTORE POP POP JUMP JUMPDEST PUSH0 PUSH2 0xD9D DUP4 DUP4 PUSH2 0xD83 JUMP JUMPDEST PUSH1 0x20 DUP4 ADD SWAP1 POP SWAP3 SWAP2 POP POP JUMP JUMPDEST PUSH0 PUSH1 0x20 DUP3 ADD SWAP1 POP SWAP2 SWAP1 POP JUMP JUMPDEST PUSH0 PUSH2 0xDBF DUP3 PUSH2 0xD5A JUMP JUMPDEST PUSH2 0xDC9 DUP2 DUP6 PUSH2 0xD64 JUMP JUMPDEST SWAP4 POP PUSH2 0xDD4 DUP4 PUSH2 0xD74 JUMP JUMPDEST DUP1 PUSH0 JUMPDEST DUP4 DUP2 LT ISZERO PUSH2 0xE04 JUMPI DUP2 MLOAD PUSH2 0xDEB DUP9 DUP3 PUSH2 0xD92 JUMP JUMPDEST SWAP8 POP PUSH2 0xDF6 DUP4 PUSH2 0xDA9 JUMP JUMPDEST SWAP3 POP POP PUSH1 0x1 DUP2 ADD SWAP1 POP PUSH2 0xDD7 JUMP JUMPDEST POP DUP6 SWAP4 POP POP POP POP SWAP3 SWAP2 POP POP JUMP JUMPDEST PUSH0 PUSH1 0xE0 DUP3 ADD SWAP1 POP PUSH2 0xE24 PUSH0 DUP4 ADD DUP11 PUSH2 0xC5B JUMP JUMPDEST DUP2 DUP2 SUB PUSH1 0x20 DUP4 ADD MSTORE PUSH2 0xE36 DUP2 DUP10 PUSH2 0xCBC JUMP JUMPDEST SWAP1 POP DUP2 DUP2 SUB PUSH1 0x40 DUP4 ADD MSTORE PUSH2 0xE4A DUP2 DUP9 PUSH2 0xCBC JUMP JUMPDEST SWAP1 POP PUSH2 0xE59 PUSH1 0x60 DUP4 ADD DUP8 PUSH2 0xCF4 JUMP JUMPDEST PUSH2 0xE66 PUSH1 0x80 DUP4 ADD DUP7 PUSH2 0xD33 JUMP JUMPDEST PUSH2 0xE73 PUSH1 0xA0 DUP4 ADD DUP6 PUSH2 0xD4B JUMP JUMPDEST DUP2 DUP2 SUB PUSH1 0xC0 DUP4 ADD MSTORE PUSH2 0xE85 DUP2 DUP5 PUSH2 0xDB5 JUMP JUMPDEST SWAP1 POP SWAP9 SWAP8 POP POP POP POP POP POP POP POP JUMP JUMPDEST PUSH0 PUSH1 0x20 DUP3 ADD SWAP1 POP PUSH2 0xEA6 PUSH0 DUP4 ADD DUP5 PUSH2 0xD33 JUMP JUMPDEST SWAP3 SWAP2 POP POP JUMP JUMPDEST PUSH0 DUP2 MLOAD SWAP1 POP SWAP2 SWAP1 POP JUMP JUMPDEST PUSH0 DUP3 DUP3 MSTORE PUSH1 0x20 DUP3 ADD SWAP1 POP SWAP3 SWAP2 POP POP JUMP JUMPDEST PUSH0 DUP2 SWAP1 POP PUSH1 0x20 DUP3 ADD SWAP1 POP SWAP2 SWAP1 POP JUMP JUMPDEST PUSH0 PUSH4 0xFFFFFFFF DUP3 AND SWAP1 POP SWAP2 SWAP1 POP JUMP JUMPDEST PUSH2 0xEED DUP2 PUSH2 0xED5 JUMP JUMPDEST DUP3 MSTORE POP POP JUMP JUMPDEST PUSH0 PUSH2 0xEFE DUP4 DUP4 PUSH2 0xEE4 JUMP JUMPDEST PUSH1 0x20 DUP4 ADD SWAP1 POP SWAP3 SWAP2 POP POP JUMP JUMPDEST PUSH0 PUSH1 0x20 DUP3 ADD SWAP1 POP SWAP2 SWAP1 POP JUMP JUMPDEST PUSH0 PUSH2 0xF20 DUP3 PUSH2 0xEAC JUMP JUMPDEST PUSH2 0xF2A DUP2 DUP6 PUSH2 0xEB6 JUMP JUMPDEST SWAP4 POP PUSH2 0xF35 DUP4 PUSH2 0xEC6 JUMP JUMPDEST DUP1 PUSH0 JUMPDEST DUP4 DUP2 LT ISZERO PUSH2 0xF65 JUMPI DUP2 MLOAD PUSH2 0xF4C DUP9 DUP3 PUSH2 0xEF3 JUMP JUMPDEST SWAP8 POP PUSH2 0xF57 DUP4 PUSH2 0xF0A JUMP JUMPDEST SWAP3 POP POP PUSH1 0x1 DUP2 ADD SWAP1 POP PUSH2 0xF38 JUMP JUMPDEST POP DUP6 SWAP4 POP POP POP POP SWAP3 SWAP2 POP POP JUMP JUMPDEST PUSH0 PUSH1 0x20 DUP3 ADD SWAP1 POP DUP2 DUP2 SUB PUSH0 DUP4 ADD MSTORE PUSH2 0xF8A DUP2 DUP5 PUSH2 0xF16 JUMP JUMPDEST SWAP1 POP SWAP3 SWAP2 POP POP JUMP JUMPDEST PUSH0 DUP1 REVERT JUMPDEST PUSH0 DUP1 REVERT JUMPDEST PUSH0 DUP1 REVERT JUMPDEST PUSH0 DUP1 DUP4 PUSH1 0x1F DUP5 ADD SLT PUSH2 0xFB3 JUMPI PUSH2 0xFB2 PUSH2 0xF92 JUMP JUMPDEST JUMPDEST DUP3 CALLDATALOAD SWAP1 POP PUSH8 0xFFFFFFFFFFFFFFFF DUP2 GT ISZERO PUSH2 0xFD0 JUMPI PUSH2 0xFCF PUSH2 0xF96 JUMP JUMPDEST JUMPDEST PUSH1 0x20 DUP4 ADD SWAP2 POP DUP4 PUSH1 0x1 DUP3 MUL DUP4 ADD GT ISZERO PUSH2 0xFEC JUMPI PUSH2 0xFEB PUSH2 0xF9A JUMP JUMPDEST JUMPDEST SWAP3 POP SWAP3 SWAP1 POP JUMP JUMPDEST PUSH0 DUP1 PUSH0 DUP1 PUSH1 0x40 DUP6 DUP8 SUB SLT ISZERO PUSH2 0x100B JUMPI PUSH2 0x100A PUSH2 0xB78 JUMP JUMPDEST JUMPDEST PUSH0 DUP6 ADD CALLDATALOAD PUSH8 0xFFFFFFFFFFFFFFFF DUP2 GT ISZERO PUSH2 0x1028 JUMPI PUSH2 0x1027 PUSH2 0xB7C JUMP JUMPDEST JUMPDEST PUSH2 0x1034 DUP8 DUP3 DUP9 ADD PUSH2 0xF9E JUMP JUMPDEST SWAP5 POP SWAP5 POP POP PUSH1 0x20 DUP6 ADD CALLDATALOAD PUSH8 0xFFFFFFFFFFFFFFFF DUP2 GT ISZERO PUSH2 0x1057 JUMPI PUSH2 0x1056 PUSH2 0xB7C JUMP JUMPDEST JUMPDEST PUSH2 0x1063 DUP8 DUP3 DUP9 ADD PUSH2 0xF9E JUMP JUMPDEST SWAP3 POP SWAP3 POP POP SWAP3 SWAP6 SWAP2 SWAP5 POP SWAP3 POP JUMP JUMPDEST PUSH2 0x107A DUP2 PUSH2 0xED5 JUMP JUMPDEST DUP3 MSTORE POP POP JUMP JUMPDEST PUSH0 PUSH1 0x20 DUP3 ADD SWAP1 POP PUSH2 0x1093 PUSH0 DUP4 ADD DUP5 PUSH2 0x1071 JUMP JUMPDEST SWAP3 SWAP2 POP POP JUMP JUMPDEST PUSH32 0x4E487B7100000000000000000000000000000000000000000000000000000000 PUSH0 MSTORE PUSH1 0x41 PUSH1 0x4 MSTORE PUSH1 0x24 PUSH0 REVERT JUMPDEST PUSH32 0x4F6E6C79206F776E65722063616E2073746F72652062656E6566696369617269 PUSH0 DUP3 ADD MSTORE PUSH32 0x6573000000000000000000000000000000000000000000000000000000000000 PUSH1 0x20 DUP3 ADD MSTORE POP JUMP JUMPDEST PUSH0 PUSH2 0x1120 PUSH1 0x22 DUP4 PUSH2 0xC74 JUMP JUMPDEST SWAP2 POP PUSH2 0x112B DUP3 PUSH2 0x10C6 JUMP JUMPDEST PUSH1 0x40 DUP3 ADD SWAP1 POP SWAP2 SWAP1 POP JUMP JUMPDEST PUSH0 PUSH1 0x20 DUP3 ADD SWAP1 POP DUP2 DUP2 SUB PUSH0 DUP4 ADD MSTORE PUSH2 0x114D DUP2 PUSH2 0x1114 JUMP JUMPDEST SWAP1 POP SWAP2 SWAP1 POP JUMP JUMPDEST PUSH32 0x4F6E6C79206F776E65722063616E20646563727970742062656E656669636961 PUSH0 DUP3 ADD MSTORE PUSH32 0x7269657300000000000000000000000000000000000000000000000000000000 PUSH1 0x20 DUP3 ADD MSTORE POP JUMP JUMPDEST PUSH0 PUSH2 0x11AE PUSH1 0x24 DUP4 PUSH2 0xC74 JUMP JUMPDEST SWAP2 POP PUSH2 0x11B9 DUP3 PUSH2 0x1154 JUMP JUMPDEST PUSH1 0x40 DUP3 ADD SWAP1 POP SWAP2 SWAP1 POP JUMP JUMPDEST PUSH0 PUSH1 0x20 DUP3 ADD SWAP1 POP DUP2 DUP2 SUB PUSH0 DUP4 ADD MSTORE PUSH2 0x11DB DUP2 PUSH2 0x11A2 JUMP JUMPDEST SWAP1 POP SWAP2 SWAP1 POP JUMP JUMPDEST PUSH32 0x4E487B7100000000000000000000000000000000000000000000000000000000 PUSH0 MSTORE PUSH1 0x32 PUSH1 0x4 MSTORE PUSH1 0x24 PUSH0 REVERT JUMPDEST PUSH32 0x4F6E6C79206F776E65722063616E20646563727970742070657263656E746167 PUSH0 DUP3 ADD MSTORE PUSH32 0x6573000000000000000000000000000000000000000000000000000000000000 PUSH1 0x20 DUP3 ADD MSTORE POP JUMP JUMPDEST PUSH0 PUSH2 0x1269 PUSH1 0x22 DUP4 PUSH2 0xC74 JUMP JUMPDEST SWAP2 POP PUSH2 0x1274 DUP3 PUSH2 0x120F JUMP JUMPDEST PUSH1 0x40 DUP3 ADD SWAP1 POP SWAP2 SWAP1 POP JUMP JUMPDEST PUSH0 PUSH1 0x20 DUP3 ADD SWAP1 POP DUP2 DUP2 SUB PUSH0 DUP4 ADD MSTORE PUSH2 0x1296 DUP2 PUSH2 0x125D JUMP JUMPDEST SWAP1 POP SWAP2 SWAP1 POP JUMP JUMPDEST PUSH32 0x4E487B7100000000000000000000000000000000000000000000000000000000 PUSH0 MSTORE PUSH1 0x22 PUSH1 0x4 MSTORE PUSH1 0x24 PUSH0 REVERT JUMPDEST PUSH0 PUSH1 0x2 DUP3 DIV SWAP1 POP PUSH1 0x1 DUP3 AND DUP1 PUSH2 0x12E1 JUMPI PUSH1 0x7F DUP3 AND SWAP2 POP JUMPDEST PUSH1 0x20 DUP3 LT DUP2 SUB PUSH2 0x12F4 JUMPI PUSH2 0x12F3 PUSH2 0x129D JUMP JUMPDEST JUMPDEST POP SWAP2 SWAP1 POP JUMP JUMPDEST PUSH0 DUP2 MLOAD SWAP1 POP SWAP2 SWAP1 POP JUMP JUMPDEST PUSH0 DUP2 SWAP1 POP SWAP3 SWAP2 POP POP JUMP JUMPDEST PUSH0 PUSH2 0x1318 DUP3 PUSH2 0x12FA JUMP JUMPDEST PUSH2 0x1322 DUP2 DUP6 PUSH2 0x1304 JUMP JUMPDEST SWAP4 POP PUSH2 0x1332 DUP2 DUP6 PUSH1 0x20 DUP7 ADD PUSH2 0xC84 JUMP JUMPDEST DUP1 DUP5 ADD SWAP2 POP POP SWAP3 SWAP2 POP POP JUMP JUMPDEST PUSH0 DUP2 SWAP1 POP SWAP2 SWAP1 POP JUMP JUMPDEST PUSH2 0x1358 PUSH2 0x1353 DUP3 PUSH2 0xC30 JUMP JUMPDEST PUSH2 0x133E JUMP JUMPDEST DUP3 MSTORE POP POP JUMP JUMPDEST PUSH0 PUSH2 0x1369 DUP3 DUP6 PUSH2 0x130E JUMP JUMPDEST SWAP2 POP PUSH2 0x1375 DUP3 DUP5 PUSH2 0x1347 JUMP JUMPDEST PUSH1 0x1 DUP3 ADD SWAP2 POP DUP2 SWAP1 POP SWAP4 SWAP3 POP POP POP JUMP JUMPDEST PUSH0 DUP3 DUP3 MSTORE PUSH1 0x20 DUP3 ADD SWAP1 POP SWAP3 SWAP2 POP POP JUMP JUMPDEST PUSH0 PUSH2 0x139F DUP3 PUSH2 0x12FA JUMP JUMPDEST PUSH2 0x13A9 DUP2 DUP6 PUSH2 0x1385 JUMP JUMPDEST SWAP4 POP PUSH2 0x13B9 DUP2 DUP6 PUSH1 0x20 DUP7 ADD PUSH2 0xC84 JUMP JUMPDEST PUSH2 0x13C2 DUP2 PUSH2 0xCAC JUMP JUMPDEST DUP5 ADD SWAP2 POP POP SWAP3 SWAP2 POP POP JUMP JUMPDEST PUSH0 PUSH1 0x20 DUP3 ADD SWAP1 POP DUP2 DUP2 SUB PUSH0 DUP4 ADD MSTORE PUSH2 0x13E5 DUP2 DUP5 PUSH2 0x1395 JUMP JUMPDEST SWAP1 POP SWAP3 SWAP2 POP POP JUMP JUMPDEST PUSH0 DUP2 MLOAD SWAP1 POP PUSH2 0x13FB DUP2 PUSH2 0xB89 JUMP JUMPDEST SWAP3 SWAP2 POP POP JUMP JUMPDEST PUSH0 PUSH1 0x20 DUP3 DUP5 SUB SLT ISZERO PUSH2 0x1416 JUMPI PUSH2 0x1415 PUSH2 0xB78 JUMP JUMPDEST JUMPDEST PUSH0 PUSH2 0x1423 DUP5 DUP3 DUP6 ADD PUSH2 0x13ED JUMP JUMPDEST SWAP2 POP POP SWAP3 SWAP2 POP POP JUMP JUMPDEST PUSH0 PUSH1 0x20 DUP3 ADD SWAP1 POP PUSH2 0x143F PUSH0 DUP4 ADD DUP5 PUSH2 0xCF4 JUMP JUMPDEST SWAP3 SWAP2 POP POP JUMP INVALID LOG2 PUSH5 0x6970667358 0x22 SLT KECCAK256 DELEGATECALL SMOD DUP16 PUSH19 0xFBBDFB4C5A63F5D3DE4BBFEE952C90AEF70B7E 0xE6 SIGNEXTEND ADDMOD CREATE SHL 0x2A PUSH26 0xE52164736F6C6343000818003300000000000000000000000000 "
		},
		"gasEstimates": {
			"creation": {
				"codeDepositCost": "1048600",
				"executionCost": "infinite",
				"totalCost": "infinite"
			},
			"external": {
				"beneficiaries(uint256)": "6583",
				"decryptBeneficiaries()": "infinite",
				"decryptPercentages()": "infinite",
				"eip712Domain()": "infinite",
				"encryptedBeneficiaries(uint256)": "infinite",
				"encryptedPercentages(uint256)": "infinite",
				"getBeneficiaries()": "infinite",
				"getPercentages()": "infinite",
				"owner()": "2575",
				"percentages(uint256)": "6627",
				"storeBeneficiary(bytes,bytes)": "infinite"
			}
		},
		"methodIdentifiers": {
			"beneficiaries(uint256)": "efeb5e58",
			"decryptBeneficiaries()": "f732a537",
			"decryptPercentages()": "ff2135f7",
			"eip712Domain()": "84b0196e",
			"encryptedBeneficiaries(uint256)": "09eb0a95",
			"encryptedPercentages(uint256)": "204fc0cd",
			"getBeneficiaries()": "913b722c",
			"getPercentages()": "90f25eb3",
			"owner()": "8da5cb5b",
			"percentages(uint256)": "f8858386",
			"storeBeneficiary(bytes,bytes)": "e2985812"
		}
	},
	"abi": [
		{
			"inputs": [],
			"stateMutability": "nonpayable",
			"type": "constructor"
		},
		{
			"inputs": [],
			"name": "InvalidShortString",
			"type": "error"
		},
		{
			"inputs": [
				{
					"internalType": "string",
					"name": "str",
					"type": "string"
				}
			],
			"name": "StringTooLong",
			"type": "error"
		},
		{
			"anonymous": false,
			"inputs": [],
			"name": "EIP712DomainChanged",
			"type": "event"
		},
		{
			"inputs": [
				{
					"internalType": "uint256",
					"name": "",
					"type": "uint256"
				}
			],
			"name": "beneficiaries",
			"outputs": [
				{
					"internalType": "uint32",
					"name": "",
					"type": "uint32"
				}
			],
			"stateMutability": "view",
			"type": "function"
		},
		{
			"inputs": [],
			"name": "decryptBeneficiaries",
			"outputs": [],
			"stateMutability": "nonpayable",
			"type": "function"
		},
		{
			"inputs": [],
			"name": "decryptPercentages",
			"outputs": [],
			"stateMutability": "nonpayable",
			"type": "function"
		},
		{
			"inputs": [],
			"name": "eip712Domain",
			"outputs": [
				{
					"internalType": "bytes1",
					"name": "fields",
					"type": "bytes1"
				},
				{
					"internalType": "string",
					"name": "name",
					"type": "string"
				},
				{
					"internalType": "string",
					"name": "version",
					"type": "string"
				},
				{
					"internalType": "uint256",
					"name": "chainId",
					"type": "uint256"
				},
				{
					"internalType": "address",
					"name": "verifyingContract",
					"type": "address"
				},
				{
					"internalType": "bytes32",
					"name": "salt",
					"type": "bytes32"
				},
				{
					"internalType": "uint256[]",
					"name": "extensions",
					"type": "uint256[]"
				}
			],
			"stateMutability": "view",
			"type": "function"
		},
		{
			"inputs": [
				{
					"internalType": "uint256",
					"name": "",
					"type": "uint256"
				}
			],
			"name": "encryptedBeneficiaries",
			"outputs": [
				{
					"internalType": "euint32",
					"name": "",
					"type": "uint256"
				}
			],
			"stateMutability": "view",
			"type": "function"
		},
		{
			"inputs": [
				{
					"internalType": "uint256",
					"name": "",
					"type": "uint256"
				}
			],
			"name": "encryptedPercentages",
			"outputs": [
				{
					"internalType": "euint32",
					"name": "",
					"type": "uint256"
				}
			],
			"stateMutability": "view",
			"type": "function"
		},
		{
			"inputs": [],
			"name": "getBeneficiaries",
			"outputs": [
				{
					"internalType": "uint32[]",
					"name": "",
					"type": "uint32[]"
				}
			],
			"stateMutability": "view",
			"type": "function"
		},
		{
			"inputs": [],
			"name": "getPercentages",
			"outputs": [
				{
					"internalType": "uint32[]",
					"name": "",
					"type": "uint32[]"
				}
			],
			"stateMutability": "view",
			"type": "function"
		},
		{
			"inputs": [],
			"name": "owner",
			"outputs": [
				{
					"internalType": "address",
					"name": "",
					"type": "address"
				}
			],
			"stateMutability": "view",
			"type": "function"
		},
		{
			"inputs": [
				{
					"internalType": "uint256",
					"name": "",
					"type": "uint256"
				}
			],
			"name": "percentages",
			"outputs": [
				{
					"internalType": "uint32",
					"name": "",
					"type": "uint32"
				}
			],
			"stateMutability": "view",
			"type": "function"
		},
		{
			"inputs": [
				{
					"internalType": "bytes",
					"name": "encryptedBeneficiary",
					"type": "bytes"
				},
				{
					"internalType": "bytes",
					"name": "encryptedPercentage",
					"type": "bytes"
				}
			],
			"name": "storeBeneficiary",
			"outputs": [],
			"stateMutability": "nonpayable",
			"type": "function"
		}
	]
}